:1000000061C0000086C0000084C0000082C0000003
:1000100080C000007EC000007CC000007AC00000EC
:1000200078C0000076C0000074C0000072C00000FC
:1000300070C000006EC000006CC000006AC000000C
:10004000F4C4000066C00000D2C000001DC1000062
:1000500060C000005EC000005CC000005AC000002C
:1000600058C0000056C00000000000002400270017
:100070002A0000000000250028002B0000000000DE
:1000800023002600290004040404040404040202DA
:100090000202020203030303030301020408102007
:1000A0004080010204081020010204081020000012
:1000B0000007000201000003040600000000000029
:1000C0000000AF0211241FBECFEFD8E0DEBFCDBFCE
:1000D00011E0A0E0B1E0E2ECF2E102C005900D9287
:1000E000AA32B107D9F711E0AAE2B1E001C01D922E
:1000F000A13EB107E1F710E0C4ECD0E004C02297C4
:10010000FE010E945B09C23CD107C9F77ED20C9464
:100110005F0976CF84E01AD6892B19F489E061E073
:1001200002C089E060E0BED564EF71E080E090E05D
:10013000C4D481E156D5AA2797FDA095BA2FBC015A
:10014000CD015BD723E333E343E550E40E94B108DC
:1001500020E030E040E85AE30E94B10820E030E0BF
:1001600040E05FE346D62AE037ED43E25CE3AAD6FF
:100170009B01AC01CB01DA0180932A0190932B0102
:10018000A0932C01B0932D0186EB91E0A901BD0154
:1001900022E030E028D486EB91E060E071E034C4E6
:1001A00081E160E040D586EB91E040E855E260E017
:1001B00070E0A5D084E060E036D584E061E072D5DF
:1001C00089E061E030D589E061E06CD568E873E1F1
:1001D00080E090E072D489E060E064D568E873E183
:1001E00080E090E06AD489E061E05CC508951F92E8
:1001F0000F920FB60F9211242F933F934F938F932B
:100200009F93EF93FF938091C00082FD1DC04091AA
:10021000C60020916E0130916F012F5F3F4F2F7309
:10022000307080917001909171012817390771F039
:10023000E0916E01F0916F01E25DFE4F40833093DB
:100240006F0120936E0102C08091C600FF91EF9173
:100250009F918F914F913F912F910F900FBE0F90D3
:100260001F901895E091C201F091C301E05CFF4F2F
:100270008191919120813181821B930B8F739070BA
:10028000892B09F0B3CF08951F920F920FB60F92EA
:1002900011242F933F938F939F93EF93FF9320917C
:1002A000B2013091B3018091B4019091B50128174A
:1002B000390731F48091C1008F7D8093C10014C053
:1002C000E091B401F091B501EE58FE4F208180918C
:1002D000B4019091B50101968F7390709093B50120
:1002E0008093B4012093C600FF91EF919F918F916D
:1002F0003F912F910F900FBE0F901F901895AF92C6
:10030000BF92DF92EF92FF920F931F93CF93DF93F1
:10031000EC017A018B01DD24403081EE580780E04A
:10032000680780E0780711F0DD24D39491E0A92ECE
:10033000B12CEC89FD89DD2069F0C50108A002C05F
:10034000880F991F0A94E2F7808360E079E08DE3DB
:1003500090E005C0108260E874E88EE190E0A801AA
:10036000970185D7215030404040504056954795E1
:100370003795279580E12030380720F0DD2011F0F7
:10038000DD24D7CFE889F9893083EA89FB89208386
:1003900019A2EE89FF89408121E030E0C9010C8C6F
:1003A00002C0880F991F0A94E2F7482B4083EE8918
:1003B000FF894081C9010D8C02C0880F991F0A94E2
:1003C000E2F7482B4083EE89FF894081C9010E8CFA
:1003D00002C0880F991F0A94E2F7482B4083EE89E8
:1003E000FF8980810F8C02C0220F331F0A94E2F72D
:1003F000209528232083DF91CF911F910F91FF90AB
:10040000EF90DF90BF90AF900895DC011C96ED91C6
:10041000FC911D97E05CFF4F21913191808191818A
:10042000281B390B2F733070C9010895DC011C960D
:10043000ED91FC911D97E05CFF4F20813181E054EC
:10044000F040DF01AE5BBF4F8D919C911197281753
:10045000390719F42FEF3FEF07C08D919C91E80FFA
:10046000F91F8081282F30E0C9010895DC011C9616
:10047000ED91FC911D97E05CFF4F20813181E054AC
:10048000F040DF01AE5BBF4F8D919C911197281713
:10049000390719F42FEF3FEF10C08D919C91119700
:1004A000E80FF91F20818D919C91119701968F7310
:1004B000907011969C938E9330E0C9010895DC01F1
:1004C00091968C919197882339F05496ED91FC91F7
:1004D0005597808186FFF9CF91961C920895CF930E
:1004E000DF93EC01EE85FF85E05CFF4F20813181D9
:1004F000E054F0402F5F3F4F2F733070DF01AE5B51
:10050000BF4F8D919C91119728173907D1F3E05C6B
:10051000FF4F80819181E054F040E80FF91F608324
:10052000EE85FF85E05CFF4F31832083EE89FF89F4
:10053000208181E090E00F8C02C0880F991F0A94FF
:10054000E2F7282B208381E089A3EC89FD89808153
:100550008064808381E090E0DF91CF9108951092D4
:10056000B9011092B80188EE93E0A0E0B0E080936A
:10057000BA019093BB01A093BC01B093BD018EE181
:1005800091E09093B7018093B6018EE291E0909351
:10059000C3018093C20182E791E09093C5018093EB
:1005A000C40185EC90E09093C7018093C60184EC70
:1005B00090E09093C9018093C80180EC90E0909303
:1005C000CB018093CA0181EC90E09093CD018093A0
:1005D000CC0182EC90E09093CF018093CE0186EC29
:1005E00090E09093D1018093D00184E08093D20178
:1005F00083E08093D30187E08093D40185E08093EA
:10060000D50181E08093D6010895CF93DF93AED2D8
:10061000C7DDC2E3D1E07EDD2097E9F323DEFBCF27
:10062000CF92DF92EF92FF920F931F93CF93DF93BE
:100630007C016B018A01C0E0D0E00FC0D6016D9152
:100640006D01D701ED91FC910190F081E02DC70182
:100650000995C80FD91F015010400115110571F7F8
:10066000CE01DF91CF911F910F91FF90EF90DF901E
:10067000CF900895EF92FF920F931F938C01DC01AE
:10068000ED91FC910190F081E02D6DE009957C01E8
:10069000D801ED91FC910190F081E02DC8016AE054
:1006A00009959C012E0D3F1DC9011F910F91FF90CF
:1006B000EF900895CF93DF93EC016115710519F464
:1006C00020E030E00FC0DB010D900020E9F711972A
:1006D000A61BB70BE881F9810280F381E02DAD0103
:1006E00009959C01C901DF91CF9108954F925F92C6
:1006F0007F928F929F92AF92BF92CF92DF92EF92B2
:10070000FF920F931F93DF93CF93CDB7DEB7A197DF
:100710000FB6F894DEBF0FBECDBF2C01742ECB01F7
:10072000223008F42AE019A231E2C32ED12CCC0EDB
:10073000DD1E822E9924AA24BB24672D752FA501C6
:10074000940195D579018A01C801B701A5019401E9
:100750006FD5472D461B0894C108D1084A3014F4C0
:10076000405D01C0495CF6014083E114F1040105DC
:10077000110521F07E2C5F2DC801DFCFC201B6012B
:1007800099DFA1960FB6F894DEBF0FBECDBFCF9113
:10079000DF911F910F91FF90EF90DF90CF90BF906E
:1007A000AF909F908F907F905F904F900895DC0165
:1007B0002115310541F4ED91FC910190F081E02D7E
:1007C000642F0995089592CFCF92DF92EF92FF9216
:1007D0000F931F93CF93DF93EC016A017B012115E7
:1007E000310541F4E881F9810190F081E02D642F19
:1007F00009951DC02A303105C9F477FF16C0E8817C
:10080000F9810190F081E02D6DE209958C0144277A
:100810005527BA014C195D096E097F09CE012AE0FE
:1008200065DF9801280F391F03C02AE05FDF9C01B4
:10083000C901DF91CF911F910F91FF90EF90DF9051
:10084000CF9008957F928F929F92AF92BF92CF9256
:10085000DF92EF92FF920F931F93CF93DF934C01A0
:100860007A018B01722ECB01BA01A8019701DCD469
:10087000882321F0C4016BE071E01FC0C0E0D0E02C
:1008800057016801E894D7F8C601B5012FEF3FEF93
:100890004FE75FE7C9D4882349F4C601B5012FEFBC
:1008A0003FEF4FE75FE70AD3181614F0C1E0D0E03E
:1008B000219731F0C4016FE071E0FCDEEC0184C0EF
:1008C000C801B7012FEF3FEF4FE75FE446D418169A
:1008D0004CF0C801B7012FEF3FEF4FE75FECEED2CE
:1008E000882324F4C40163E171E0E7CFC801B701B4
:1008F00020E030E040E050E0E1D287FD03C0C0E0FE
:10090000D0E00EC0D401ED91FC910190F081E02D7A
:10091000C4016DE20995EC0117FB109517F91095CC
:1009200020E030E040E05FE3DD240AC0CA01B90105
:1009300020E030E040E251E4C5D29B01AC01D39409
:10094000D714A0F3C801B70155D25B016C0127D3BE
:100950007B018C01C401B801A7012AE030E027DF48
:10096000C80FD91F772031F0C40167E171E0A2DE22
:10097000C80FD91FC801B7013ED39B01AC01C60106
:10098000B50137D21FC020E030E040E251E4E9D3A6
:100990007B018C01FFD25B016C01CC24B7FCC094BD
:1009A000DC2CC401B601A5012AE030E00DDFC80F40
:1009B000D91FC601B50121D39B01AC01C801B70104
:1009C00018D27A947720F9F6CE01DF91CF911F915A
:1009D0000F91FF90EF90DF90CF90BF90AF909F90DE
:1009E0008F907F900895EF92FF920F931F937C0159
:1009F00029DF8C01C7013EDE080F191FC8011F91B6
:100A00000F91FF90EF900895EF92FF920F931F9335
:100A10007C0150DE8C01C7012DDE080F191FC801B3
:100A20001F910F91FF90EF9008951F920F920FB6B4
:100A30000F9211242F933F938F939F93AF93BF9364
:100A40008091DC019091DD01A091DE01B091DF0188
:100A50003091E0010196A11DB11D232F2D5F2D378F
:100A600020F02D570196A11DB11D2093E001809328
:100A7000DC019093DD01A093DE01B093DF01809152
:100A8000D8019091D901A091DA01B091DB010196D2
:100A9000A11DB11D8093D8019093D901A093DA01D3
:100AA000B093DB01BF91AF919F918F913F912F91B7
:100AB0000F900FBE0F901F9018959B01AC017FB750
:100AC000F8948091D8019091D901A091DA01B09168
:100AD000DB0166B5A89B05C06F3F19F00196A11D0B
:100AE000B11D7FBFBA2FA92F982F8827860F911D80
:100AF000A11DB11D62E0880F991FAA1FBB1F6A9537
:100B0000D1F7BC012DC0FFB7F8948091D801909126
:100B1000D901A091DA01B091DB01E6B5A89B05C02F
:100B2000EF3F19F00196A11DB11DFFBFBA2FA92FEC
:100B3000982F88278E0F911DA11DB11DE2E0880F0F
:100B4000991FAA1FBB1FEA95D1F7861B970B885EDA
:100B50009340C8F2215030404040504068517C4F93
:100B6000211531054105510571F60895789484B534
:100B7000826084BD84B5816084BD85B5826085BD99
:100B800085B5816085BDEEE6F0E08081816080837F
:100B9000E1E8F0E010828081826080838081816062
:100BA0008083E0E8F0E0808181608083E1EBF0E029
:100BB000808184608083E0EBF0E0808181608083CD
:100BC000EAE7F0E0808184608083808182608083B6
:100BD0008081816080838081806880831092C100E1
:100BE0000895982F8E3008F09E50977080911901CB
:100BF0008295880F880F807C892B80937C00809160
:100C00007A00806480937A0080917A0086FDFCCF20
:100C10002091780040917900942F80E030E0282BDB
:100C2000392BC9010895CF93DF93482F50E0CA01B3
:100C300086569F4FFC0134914A575F4FFA018491C9
:100C4000882369F190E0880F991FFC01E859FF4F54
:100C5000A591B491FC01EE58FF4FC591D491662344
:100C600051F42FB7F8948C91932F909589238C93FE
:100C7000888189230BC0623061F42FB7F8948C917E
:100C8000932F909589238C938881832B88832FBF02
:100C900006C09FB7F8948C91832B8C939FBFDF91F4
:100CA000CF910895482F50E0CA0182559F4FFC0113
:100CB0002491CA0186569F4FFC0194914A575F4F79
:100CC000FA013491332309F440C0222351F1233037
:100CD00071F0243028F42130A1F0223011F514C035
:100CE0002630B1F02730C1F02430D9F404C080910F
:100CF00080008F7703C0809180008F7D809380007B
:100D000010C084B58F7702C084B58F7D84BD09C0C3
:100D10008091B0008F7703C08091B0008F7D809369
:100D2000B000E32FF0E0EE0FFF1FEE58FF4FA5914C
:100D3000B4912FB7F894662321F48C919095892370
:100D400002C08C91892B8C932FBF0895682F70E07F
:100D5000CB0182559F4FFC012491CB0186569F4FBA
:100D6000FC0144916A577F4FFB019491992319F438
:100D700020E030E03CC0222351F1233071F02430D8
:100D800028F42130A1F0223011F514C02630B1F042
:100D90002730C1F02430D9F404C0809180008F77CF
:100DA00003C0809180008F7D8093800010C084B547
:100DB0008F7702C084B58F7D84BD09C08091B0005B
:100DC0008F7703C08091B0008F7D8093B000892F12
:100DD00090E0880F991F84589F4FFC01A591B49112
:100DE0008C9120E030E0842311F021E030E0C90153
:100DF00008955058BB27AA270ED075C166D130F090
:100E00006BD120F031F49F3F11F41EF45BC10EF45E
:100E1000E095E7FB51C1E92F77D180F3BA1762075C
:100E200073078407950718F071F49EF58FC10EF4CF
:100E3000E0950B2EBA2FA02D0B01B90190010C01EA
:100E4000CA01A0011124FF27591B99F0593F50F402
:100E5000503E68F11A16F040A22F232F342F44275A
:100E6000585FF3CF469537952795A795F040539552
:100E7000C9F77EF41F16BA0B620B730B840BBAF022
:100E80009150A1F0FF0FBB1F661F771F881FC2F78D
:100E90000EC0BA0F621F731F841F48F487957795A1
:100EA0006795B795F7959E3F08F0B3CF9395880F58
:100EB00008F09927EE0F979587950895D9D008F4F3
:100EC00081E008950CD00FC107D140F0FED030F082
:100ED00021F45F3F19F0F0C0511139C1F3C014D1B2
:100EE00098F39923C9F35523B1F3951B550BBB27F1
:100EF000AA2762177307840738F09F5F5F4F220F9E
:100F0000331F441FAA1FA9F333D00E2E3AF0E0E896
:100F100030D091505040E695001CCAF729D0FE2FE2
:100F200027D0660F771F881FBB1F26173707480774
:100F3000AB07B0E809F0BB0B802DBF01FF2793582A
:100F40005F4F2AF09E3F510568F0B6C000C15F3F79
:100F5000ECF3983EDCF3869577956795B795F79512
:100F60009F5FC9F7880F911D9695879597F908950A
:100F7000E1E0660F771F881FBB1F621773078407A6
:100F8000BA0720F0621B730B840BBA0BEE1F88F7B5
:100F9000E095089504D06894B111D9C00895BCD0EB
:100FA00088F09F5790F0B92F9927B751A0F0D1F052
:100FB000660F771F881F991F1AF0BA95C9F712C0DC
:100FC000B13081F0C3D0B1E00895C0C0672F782F51
:100FD0008827B85F39F0B93FCCF386957795679548
:100FE000B395D9F73EF490958095709561957F4FB4
:100FF0008F4F9F4F0895E89409C097FB3EF490955A
:101000008095709561957F4F8F4F9F4F9923A9F0E1
:10101000F92F96E9BB279395F69587957795679570
:10102000B795F111F8CFFAF4BB0F11F460FF1BC0B4
:101030006F5F7F4F8F4F9F4F16C0882311F096E947
:1010400011C0772321F09EE8872F762F05C06623F5
:1010500071F096E8862F70E060E02AF09A95660FAE
:10106000771F881FDAF7880F9695879597F9089567
:10107000990F0008550FAA0BE0E8FEEF16161706A9
:10108000E807F907C0F012161306E407F50798F011
:10109000621B730B840B950B39F40A2661F0232B2A
:1010A000242B252B21F408950A2609F4A140A695A6
:1010B0008FEF811D811D089597F99F6780E870E08B
:1010C00060E008959FEF80EC089500240A941616BE
:1010D000170618060906089500240A941216130626
:1010E000140605060895092E0394000C11F48823B4
:1010F00052F0BB0F40F4BF2B11F460FF04C06F5FD0
:101100007F4F8F4F9F4F089557FD9058440F551FA5
:1011100059F05F3F71F04795880F97FB991F61F079
:101120009F3F79F087950895121613061406551FF0
:10113000F2CF4695F1DF08C0161617061806991F5C
:10114000F1CF86957105610508940895E894BB2751
:1011500066277727CB0197F908958ADF08F48FEF88
:1011600008950BD0C0CFB1DF28F0B6DF18F095237B
:1011700009F0A2CFA7CF1124EACFC6DFA0F3959F35
:10118000D1F3950F50E0551F629FF001729FBB276E
:10119000F00DB11D639FAA27F00DB11DAA1F649F1A
:1011A0006627B00DA11D661F829F2227B00DA11DCD
:1011B000621F739FB00DA11D621F839FA00D611D53
:1011C000221F749F3327A00D611D231F849F600D74
:1011D000211D822F762F6A2F11249F5750408AF0AD
:1011E000E1F088234AF0EE0FFF1FBB1F661F771F39
:1011F000881F91505040A9F79E3F510570F05CCF79
:10120000A6CF5F3FECF3983EDCF386957795679524
:10121000B795F795E7959F5FC1F7FE2B880F911D56
:101220009695879597F9089523DF880B990B089574
:10123000629FD001739FF001829FE00DF11D649FBA
:10124000E00DF11D929FF00D839FF00D749FF00D46
:10125000659FF00D9927729FB00DE11DF91F639FE7
:10126000B00DE11DF91FBD01CF0111240895A1E2C8
:101270001A2EAA1BBB1BFD010DC0AA1FBB1FEE1F10
:10128000FF1FA217B307E407F50720F0A21BB30B5B
:10129000E40BF50B661F771F881F991F1A9469F7D7
:1012A00060957095809590959B01AC01BD01CF0133
:1012B0000895EE0FFF1F0590F491E02D0994F89426
:0212C000FFCF5E
:1012C200616374696F6E73737373006E616E00692C
:1012D2006E66006F7666002E0001000000006F024D
:0A12E20010030502360216025F0237
:00000001FF
