:1000000044C100006AC1000068C1000066C1000070
:1000100064C1000062C1000060C100005EC1000058
:100020005CC100005AC1000058C1000056C1000068
:1000300054C1000052C1000050C100004EC1000078
:100040000C94B1094AC1000048C7000093C70000E2
:1000500044C1000042C1000040C100003EC1000098
:100060003CC100003AC100000001020304050A0B74
:100070000C0D0E0F111213141516CF01D501DB0153
:10008000E301EC01F601FF0106020E0215021C025B
:100090002402504120506F77657209203D2025537E
:1000A0000D0A00435243204C656E67746809203D79
:1000B0002025530D0A004D6F64656C0909203D2011
:1000C00025530D0A00446174612052617465092052
:1000D0003D2025530D0A0044594E50442F464541BA
:1000E0005455524500434F4E4649470052465F53D0
:1000F000455455500052465F434800454E5F5258A4
:100100004144445200454E5F41410052585F5057B0
:100110005F50302D360054585F41444452005258CD
:100120005F414444525F50322D350052585F414484
:1001300044525F50302D31000D0A002530327800D6
:10014000203078002553092563203D000D0A00204A
:10015000307825303278002553092563203D004F43
:100160004253455256455F54583D253032783A2027
:10017000504F4C535F434E543D2578204152435FCE
:10018000434E543D25780D0A0053544154555309AC
:1001900009203D203078253032782052585F445273
:1001A0003D25782054585F44533D2578204D4158D3
:1001B0005F52543D25782052585F505F4E4F3D2589
:1001C000782054585F46554C4C3D25780D0A003137
:1001D0004D42505300324D425053003235304B4265
:1001E0005053006E524632344C3031006E5246321B
:1001F000344C30312B0044697361626C65640038A3
:100200002062697473003136206269747300504152
:100210005F4D494E0050415F4C4F570050415F4881
:100220004947480050415F4D4158000000000024FC
:100230000027002A0000000000250028002B0000F5
:100240000000002300260029000404040404040420
:100250000402020202020203030303030301020475
:100260000810204080010204081020010204081038
:100270002000000007000201000003040600000047
:100280000000000000008E05260911241FBECFEFDC
:10029000D8E0DEBFCDBF11E0A0E0B1E0E4ECF5E2D4
:1002A00002C005900D92A43FB107D9F712E0A4EF68
:1002B000B1E001C01D92A33CB107E1F712E0CAE82A
:1002C000D2E004C02297FE010E94A512C638D107D1
:1002D000C9F70E947C090C94E01292CECF93DF9371
:1002E000BC018230910510F462E070E0A091BB0285
:1002F000B091BC02ED01E0E0F0E040E050E021C050
:10030000888199818617970769F48A819B81309744
:1003100019F09383828304C09093BC028093BB0244
:10032000FE0134C06817790738F44115510519F0FA
:100330008417950708F4AC01FE018A819B819C011A
:10034000E9012097E9F641155105A9F1CA01861B7B
:10035000970B049708F4BA01E0E0F0E02AC08D9111
:100360009C91119784179507F9F46417750781F428
:1003700012968D919C911397309719F093838283F5
:1003800004C09093BC028093BB02FD0132964CC026
:10039000CA01861B970BFD01E80FF91F619371934A
:1003A00002978D939C9340C0FD01828193819C01B3
:1003B000D9011097A1F68091B9029091BA02892BC8
:1003C00041F48091DA019091DB019093BA0280931D
:1003D000B9024091DC015091DD014115510541F414
:1003E0004DB75EB78091D8019091D901481B590B48
:1003F0002091B9023091BA02CA01821B930B861771
:10040000970780F0AB014E5F5F4F8417950750F060
:10041000420F531F5093BA024093B902F9016193FE
:10042000719302C0E0E0F0E0CF01DF91CF91089539
:10043000CF93DF93009709F450C0EC0122971B8201
:100440001A82A091BB02B091BC02109709F140E062
:1004500050E0AC17BD0708F1BB83AA83FE012191D0
:100460003191E20FF31FAE17BF0779F48D919C9184
:100470001197280F391F2E5F3F4F3983288312961B
:100480008D919C9113979B838A834115510571F43B
:10049000D093BC02C093BB0220C012968D919C9158
:1004A0001397AD01009711F0DC01D3CFFA01D3838C
:1004B000C28321913191E20FF31FCE17DF0769F458
:1004C00088819981280F391F2E5F3F4FFA013183B0
:1004D00020838A819B8193838283DF91CF910895CA
:1004E000FC0105900020E9F7809590958E0F9F1FE5
:1004F00008950F931F93CF93DF938C01EB01009727
:1005000031F46115710519F420E030E037C081E065
:1005100090E06EE070E041D2FC019C01009771F127
:1005200080E88383209771F0D387C28781E8838333
:100530008091BD029091BE02892B21F4F093BE02FE
:10054000E093BD0201151105C9F011870087838171
:10055000826083838091BF029091C002892B71F4E5
:10056000F093C002E093BF028091C1029091C20259
:10057000892B21F4F093C202E093C102C901DF91FB
:10058000CF911F910F910895A0E0B0E0EAECF2E066
:100590000C94B912FE013596619171918091BF0260
:1005A0009091C002AF0129D02096E2E00C94D512C0
:1005B000A0E0B0E0EEEDF2E00C94B912FE01359649
:1005C00061917191A091BF02B091C00213968C917C
:1005D0001397886013968C938091BF029091C0020C
:1005E000AF010BD0E091BF02F091C0022381277FC1
:1005F00023832096E2E00C94D512ABE0B0E0E3E078
:10060000F3E00C94A9123C012B015A01FC01178262
:100610001682838181FD03C06FEF7FEFB9C19AE03D
:10062000892E1E010894211C311CF3012381F20143
:1006300023FD859123FF81912F01882309F4A5C112
:10064000853239F423FD859123FF81912F01853275
:1006500021F490E0B301D8D1E8CF982FFF24EE2405
:100660009924FFE1FF15D0F09B3269F09C3228F409
:10067000903259F0933291F40EC09D3249F090338C
:1006800069F441E024C052E0F52A84E0F82A28C049
:1006900098E0F92A25C0E0E1FE2A22C0F7FC29C033
:1006A000892F80538A3070F4F6FE05C0989C902CF8
:1006B0001124980E15C0E89CE02C1124E80EF0E2FD
:1006C000FF2A0EC09E3229F4F6FC5FC140E4F42AF2
:1006D00007C09C3619F450E8F52A02C0983649F450
:1006E000F20123FD959123FF91912F01992309F0A8
:1006F000B8CF892F8554833018F08052833038F476
:1007000044E050E0A40EB51E5FE359830FC093365A
:1007100031F0933779F0933509F052C01FC0F501DD
:100720008081898342E050E0A40EB51E610101E0A2
:1007300010E011C0F501C080D180F6FC03C06FEF5E
:100740007FEF02C0692D70E042E050E0A40EB51EBC
:10075000C6014FD18C015FE7F52213C0F501C080BF
:10076000D180F6FC03C06FEF7FEF02C0692D70E00F
:1007700042E050E0A40EB51EC60129D18C0150E81C
:10078000F52AF3FE06C018C080E290E0B3013CD128
:10079000EA948E2D90E008171907B0F30DC0F6010A
:1007A000F7FC8591F7FE81916F0190E0B3012CD1A8
:1007B000E110EA94015010400115110581F7E2C0E3
:1007C000943611F0993661F5F7FE08C0F5012081E5
:1007D00031814281538184E090E00AC0F50180813B
:1007E00091819C01442737FD4095542F82E090E091
:1007F000A80EB91E9FE6F92257FF09C050954095F3
:10080000309521953F4F4F4F5F4FE0E8FE2ACA01D8
:10081000B901A1012AE030E023D1D82ED2183FC07F
:10082000953729F41F2D1F7E2AE030E01DC01F2DB3
:10083000197F9F3661F0903720F4983509F0A5C0F4
:100840000FC0903739F0983709F09FC004C028E0F6
:1008500030E00AC0106114FD146020E130E004C0F3
:1008600014FD166020E132E017FF08C0F501608139
:1008700071818281938144E050E008C0F50180815C
:100880009181BC0180E090E042E050E0A40EB51EF2
:10089000A101E6D0D82ED2188FE7F82EF122F6FE6D
:1008A0000BC05EEFF522D91438F4F4FE07C0F2FC59
:1008B00005C08FEEF82202C01D2D01C0192DF4FED7
:1008C0000DC0FE01ED0DF11D8081803319F499EE0C
:1008D000F92208C01F5FF2FE05C003C08F2D867885
:1008E00009F01F5F0F2DF3FC13C0F0FE0EC01E15A4
:1008F00010F09D2C0AC09D2C9E0C911A1E2D05C037
:1009000080E290E0B30180D01F5F1E15C8F304C0E1
:100910001E1510F4E11A01C0EE2404FF0EC080E39E
:1009200090E0B30171D002FF1BC001FD03C088E756
:1009300090E00EC088E590E00BC0802F867881F0B3
:1009400001FF02C08BE201C080E2F7FC8DE290E083
:10095000B3015AD005C080E390E0B30155D09A941A
:10096000D914C8F3DA94F101ED0DF11D808190E006
:10097000B3014AD0DD20B1F705C080E290E0B301B9
:1009800043D0EA94EE20C9F750CEF3016681778117
:10099000CB012B96E2E10C94C5120F931F93CF93DA
:1009A000DF93689F8001699F100D789F100D1124BF
:1009B000C80194DCEC01009721F060E070E0A80130
:1009C00011D0CE01DF91CF911F910F910895FC01BD
:1009D0000590615070400110D8F7809590958E0F6A
:1009E0009F1F0895DC0101C06D9341505040E0F716
:1009F0000895FC016150704001900110D8F7809576
:100A000090958E0F9F1F08950F931F93CF93DF93A1
:100A10008C01EB018B8181FF1BC082FF0DC02E81F9
:100A20003F818C819D812817390764F4E881F98121
:100A30000193F983E88306C0E885F985802F09953D
:100A4000892B31F48E819F8101969F838E8302C012
:100A50000FEF1FEFC801DF91CF911F910F91089504
:100A6000FA01AA27283051F1203181F1E8946F93DF
:100A70006E7F6E5F7F4F8F4F9F4FAF4FB1E03ED085
:100A8000B4E03CD0670F781F891F9A1FA11D680F23
:100A9000791F8A1F911DA11D6A0F711D811D911D56
:100AA000A11D20D009F468943F912AE0269F1124CB
:100AB0003019305D3193DEF6CF010895462F47702F
:100AC000405D4193B3E00FD0C9F7F6CF462F4F708A
:100AD000405D4A3318F0495D31FD4052419302D0E8
:100AE000A9F7EACFB4E0A69597958795779567958E
:100AF000BA95C9F700976105710508959B01AC018E
:100B00000A2E06945795479537952795BA95C9F7B4
:100B1000620F731F841F951FA01D089584EF91E03D
:100B200068E047E038C58F929F92AF92BF92DF9204
:100B3000EF92FF920F931F93DF93CF93CDB7DEB762
:100B400028970FB6F894DEBF0FBECDBF8091040288
:100B500090910502019709F0D0C084EF91E002D690
:100B600029EB31EE41E050E029833A834B835C83EB
:100B700000D000D000D080E091E0ADB7BEB71296B3
:100B80009C938E931197EDB7FEB7238334834583EF
:100B90005683FADC2DB73EB72A5F3F4F0FB6F89465
:100BA0003EBF0FBE2DBF84EF91E0BE016F5F7F4F50
:100BB00044E020E00E940610882351F000D083E139
:100BC00091E0ADB7BEB712969C938E93119707C074
:100BD00000D089E191E0EDB7FEB792838183D4DC48
:100BE0000F900F9084EF91E00E94050F02D44B010B
:100BF0005C01DD2484EF91E0D5D68823E1F4DD208B
:100C0000E1F4F7D37B018C0184EF91E056D7E8182B
:100C1000F9080A091B0968EE73E00E946D126F5F04
:100C20007F4F80E090E06E157F058007910710F7F9
:100C3000DD24D394DFCFDD2029F100D083E291E0E1
:100C4000ADB7BEB712969C938E9311979DDC0F9013
:100C50000F9084EF91E031D700D000D021E431E053
:100C6000EDB7FEB73283218368EE73E00E946D1208
:100C70006F5F7F4F7483638387DC0F900F900F90BB
:100C80000F9036C084EF91E0BE016B5F7F4F44E070
:100C90000E94BC0EAED3ED80FE800F8118852DB76B
:100CA0003EB72A5030400FB6F8943EBF0FBE2DBF5E
:100CB000EDB7FEB7319628E531E0ADB7BEB7129675
:100CC0003C932E931197E282F382048315836E196D
:100CD0007F09800B910B668377838087918754DC33
:100CE000EDB7FEB73A960FB6F894FEBF0FBEEDBF54
:100CF00068EE73E080E090E0B0D3809104029091C0
:100D00000502029709F03DC084EF91E04BD688239D
:100D1000C1F18E010B5F1F4F84EF91E0B80144E0F9
:100D20000E94BC0E8823C1F384EF91E01BD584EFB1
:100D300091E0B80144E020E00E94061000D000D00D
:100D400000D082E891E0ADB7BEB712969C938E9327
:100D500011978D819E81AF81B885EDB7FEB78383F2
:100D60009483A583B68310DC2DB73EB72A5F3F4F2F
:100D70000FB6F8943EBF0FBE2DBF84EF91E00E94E6
:100D8000050F28960FB6F894DEBF0FBECDBFCF91EA
:100D9000DF911F910F91FF90EF90DF90BF90AF9088
:100DA0009F908F9008958EE597E060E070E0A1CB72
:100DB000EF92FF920F931F9381E090E090930502D2
:100DC000809304028EE892E040E855E260E070E033
:100DD0000CD1E9DF00D086E991E0EDB7FEB7928350
:100DE0008183D2DB00D082EB91E0EDB7FEB7928336
:100DF0008183E0910402F0910502EE0FFF1FE252A1
:100E0000FE4F80819181EDB7FEB794838383BCDB75
:100E10000F900F900F900F9084EF91E00E949C0F25
:100E200084EF91E061E070E0E2D684EF91E06CE461
:100E3000BCD58091040290910502019789F484EF5A
:100E400091E001EE10EF20EF30EF40EF50E060E076
:100E500070E0DCD584EF91E061E042EDE42E10C05B
:100E600084EF91E002ED10EF20EF30EF40EF50E023
:100E700060E070E0CBD584EF91E061E031EEE32EED
:100E800020EFF22E00EF20EF30E040E050E0F9D606
:100E900084EF91E0D0D684EF91E061E01BD584EF40
:100EA00091E0A3D784EF91E0B0D784EF91E00E9466
:100EB00004111F910F91FF90EF9008950F931F93CE
:100EC000082F112707FD10958EE892E0602F7ED144
:100ED000C8011F910F91089508951F920F920FB6A8
:100EE0000F9211242F933F934F938F939F93EF93E0
:100EF000FF938091C00082FD1DC04091C6002091EB
:100F00004602309147022F5F3F4F2F733070809120
:100F10004802909149022817390771F0E091460282
:100F2000F0914702EA5FFD4F4083309347022093E0
:100F3000460202C08091C600FF91EF919F918F9170
:100F40004F913F912F910F900FBE0F901F901895CA
:100F5000E0919A02F0919B02E05CFF4F81919191A8
:100F600020813181821B930B8F739070892B09F044
:100F7000B3CF08951F920F920FB60F9211242F93A3
:100F80003F938F939F93EF93FF9320918A02309129
:100F90008B0280918C0290918D022817390731F4D1
:100FA0008091C1008F7D8093C10014C0E0918C02BC
:100FB000F0918D02E65BFD4F208180918C02909133
:100FC0008D0201968F73907090938D0280938C02A6
:100FD0002093C600FF91EF919F918F913F912F91A8
:100FE0000F900FBE0F901F901895AF92BF92DF9297
:100FF000EF92FF920F931F93CF93DF93EC017A014F
:101000008B01DD24403081EE580780E0680780E0E6
:10101000780711F0DD24D39491E0A92EB12CEC894E
:10102000FD89DD2069F0C50108A002C0880F991F65
:101030000A94E2F7808360E079E08DE390E005C0F8
:10104000108260E874E88EE190E0A80197010E94A8
:101050008112215030404040504056954795379579
:10106000279580E12030380720F0DD2011F0DD24C5
:10107000D6CFE889F9893083EA89FB89208319A2D0
:10108000EE89FF89408121E030E0C9010C8C02C06B
:10109000880F991F0A94E2F7482B4083EE89FF8955
:1010A0004081C9010D8C02C0880F991F0A94E2F794
:1010B000482B4083EE89FF894081C9010E8C02C014
:1010C000880F991F0A94E2F7482B4083EE89FF8925
:1010D00080810F8C02C0220F331F0A94E2F7209503
:1010E00028232083DF91CF911F910F91FF90EF90E4
:1010F000DF90BF90AF900895DC011C96ED91FC91BC
:101100001D97E05CFF4F2191319180819181281BD7
:10111000390B2F733070C9010895DC011C96ED91D5
:10112000FC911D97E05CFF4F20813181E054F0403D
:10113000DF01AE5BBF4F8D919C9111972817390746
:1011400019F42FEF3FEF07C08D919C91E80FF91F25
:101150008081282F30E0C9010895DC011C96ED91B3
:10116000FC911D97E05CFF4F20813181E054F040FD
:10117000DF01AE5BBF4F8D919C9111972817390706
:1011800019F42FEF3FEF10C08D919C911197E80F4C
:10119000F91F20818D919C91119701968F7390700A
:1011A00011969C938E9330E0C9010895DC019196CD
:1011B0008C919197882339F05496ED91FC91559735
:1011C000808186FFF9CF91961C920895CF93DF938B
:1011D000EC01EE85FF85E05CFF4F20813181E0541A
:1011E000F0402F5F3F4F2F733070DF01AE5BBF4F7A
:1011F0008D919C91119728173907D1F3E05CFF4F2F
:1012000080819181E054F040E80FF91F6083EE8502
:10121000FF85E05CFF4F31832083EE89FF892081C9
:1012200081E090E00F8C02C0880F991F0A94E2F7CA
:10123000282B208381E089A3EC89FD89808180644B
:10124000808381E090E0DF91CF9108951092910228
:101250001092900288EE93E0A0E0B0E080939202BA
:1012600090939302A0939402B093950288EE91E03C
:1012700090938F0280938E0286E092E090939B027F
:1012800080939A028AE492E090939D0280939C025C
:1012900085EC90E090939F0280939E0284EC90E016
:1012A0009093A1028093A00280EC90E09093A3021F
:1012B0008093A20281EC90E09093A5028093A40217
:1012C00082EC90E09093A7028093A60286EC90E0D7
:1012D0009093A9028093A80284E08093AA0283E0FD
:1012E0008093AB0287E08093AC0285E08093AD02EF
:1012F00081E08093AE020895CF93DF9311D158DD42
:10130000C8EAD7E010DC2097E9F322DEFBCFCF92CA
:10131000DF92EF92FF920F931F93CF93DF937C01A5
:101320006B018A01C0E0D0E00FC0D6016D916D0164
:10133000D701ED91FC910190F081E02DC701099555
:10134000C80FD91F015010400115110571F7CE01CA
:10135000DF91CF911F910F91FF90EF90DF90CF9091
:1013600008951F920F920FB60F9211242F933F935F
:101370008F939F93AF93BF938091B4029091B502E6
:10138000A091B602B091B7023091B8020196A11DAA
:10139000B11D232F2D5F2D3720F02D570196A11D54
:1013A000B11D2093B8028093B4029093B502A0932C
:1013B000B602B093B7028091B0029091B102A091B1
:1013C000B202B091B3020196A11DB11D8093B0028B
:1013D0009093B102A093B202B093B302BF91AF91C8
:1013E0009F918F913F912F910F900FBE0F901F9063
:1013F00018958FB7F8942091B4023091B5024091BE
:10140000B6025091B7028FBFB901CA0108959FB7C4
:10141000F8942091B0023091B1024091B202509103
:10142000B30286B5A89B06C08F3F21F02F5F3F4FC8
:101430004F4F5F4F9FBF542F432F322F2227280F2C
:10144000311D411D511D82E0220F331F441F551FC6
:101450008A95D1F7B901CA0108959B01AC017FB704
:10146000F8948091B0029091B102A091B202B09133
:10147000B30266B5A89B05C06F3F19F00196A11D88
:10148000B11D7FBFBA2FA92F982F8827860F911DD6
:10149000A11DB11D62E0880F991FAA1FBB1F6A958D
:1014A000D1F7BC012DC0FFB7F8948091B0029091A4
:1014B000B102A091B202B091B302E6B5A89B05C0FB
:1014C000EF3F19F00196A11DB11DFFBFBA2FA92F43
:1014D000982F88278E0F911DA11DB11DE2E0880F66
:1014E000991FAA1FBB1FEA95D1F7861B970B885E31
:1014F0009340C8F2215030404040504068517C4FEA
:10150000211531054105510571F60895019739F00E
:10151000880F991F880F991F02970197F1F7089577
:10152000789484B5826084BD84B5816084BD85B5BE
:10153000826085BD85B5816085BDEEE6F0E0808185
:1015400081608083E1E8F0E01082808182608083A6
:10155000808181608083E0E8F0E080818160808329
:10156000E1EBF0E0808184608083E0EBF0E080815B
:1015700081608083EAE7F0E08081846080838081FD
:1015800082608083808181608083808180688083A5
:101590001092C1000895FC016083418381E0828341
:1015A000138280E284831582168210861186128649
:1015B00013861486158616861786089570E08DB7F3
:1015C0009EB70E970FB6F8949EBF0FBE8DBFEDB7B6
:1015D000FEB7319689E891E0ADB7BEB712969C93FD
:1015E0008E93119773836283CB0156E0969587950E
:1015F0005A95E1F78170907095838483CB0145E023
:10160000969587954A95E1F78170907097838683C8
:10161000CB0134E0969587953A95E1F7817090700B
:1016200091878087CB019595879587709070938778
:10163000828761707070758764870E94D8028DB749
:101640009EB70E960FB6F8949EBF0FBE8DBF08953D
:10165000FF920F931F938C01F62E81E00DD780E04F
:1016600014D780E017D7F80181816F2DB1D61F9173
:101670000F91FF900895CF93DF93EC0160E070E04D
:10168000E7DF80E58EBD0DB407FEFDCF8EB583E7A5
:101690008EBD0DB407FEFDCF8EB5CE0161E070E0CA
:1016A000D7DFDF91CF9108951F93CF93DF93EC01A4
:1016B00060E070E0CDDF80E68EBD0DB407FEFDCFAB
:1016C0008EB58FEF8EBD0DB407FEFDCF1EB5CE01DA
:1016D00061E070E0BDDF812FDF91CF911F91089510
:1016E0001F93CF93DF93EC0160E070E0B1DF8FEFE9
:1016F0008EBD0DB407FEFDCF1EB5CE0161E070E0DA
:10170000A7DF812FDF91CF911F9108951F93CF9372
:10171000DF93EC0160E070E09BDF81EE8EBD0DB4E5
:1017200007FEFDCF1EB5CE0161E070E091DF812F95
:10173000DF91CF911F9108951F93CF93DF93EC0119
:1017400060E070E085DF82EE8EBD0DB407FEFDCF58
:101750001EB5CE0161E070E07BDF812FDF91CF917C
:101760001F9108950F931F938C01FC01808160E00D
:101770002FD6C801CBDFC801DFDF1F910F9108957D
:10178000EF92FF920F931F93CF93DF93EC01F62E0E
:10179000E72E9C81142F941708F4192F8E8188232B
:1017A00011F000E002C0092F011BCE0160E070E0E3
:1017B0004FDF81E68EBD0DB407FEFDCF8F2D9E2D30
:1017C0009C01F901FEB49FEF07C09EBD0DB407FE5A
:1017D000FDCF8EB5819311501123B9F707C08EBD8F
:1017E0000DB407FEFDCF9EB5015001C08FEF002361
:1017F000B1F7CE0161E070E02BDF8F2DDF91CF914B
:101800001F910F91FF90EF900895DF92EF92FF925A
:101810000F931F93CF93DF93EC01E62ED72EF22E7A
:101820009C81142F941708F4192F8E81882311F0AE
:1018300000E002C0092F011BCE0160E070E008DF6C
:10184000FEBC0DB407FEFDCF8E2D9D2D9C01F90130
:10185000FEB408C080818EBD0DB407FEFDCF319669
:101860008EB511501123B1F706C01EBC0DB407FE92
:10187000FDCF8EB501500023C1F7CE0161E070E0CD
:10188000E7DE8F2DDF91CF911F910F91FF90EF90A9
:10189000DF9008950F931F93CF93DF93EC01162FE2
:1018A000042F60E070E0D4DE1F7110621EBD0DB425
:1018B00007FEFDCF1EB50EBD0DB407FEFDCF8EB5E4
:1018C000CE0161E070E0C4DE812FDF91CF911F91E6
:1018D0000F910895662319F061E04FE302C061E0C3
:1018E00040E0D8CFCF92DF92EF92FF920F931F93F9
:1018F0008B017A01690167E040E7CCDF90E09C0151
:10190000E5E036952795EA95E1F72170F801208307
:1019100074E0969587957A95E1F7282F2170F70165
:10192000208396958795969587958170F60180839B
:101930001F910F91FF90EF90DF90CF900895DF926D
:10194000EF92FF920F931F93CF93DF938C017B0154
:10195000C7DEC82FD0E0CE01A6E096958795AA9560
:10196000E1F7DD24D394D82280FF13C0E114F10401
:1019700031F0CE01959587958770F7018083C80176
:1019800067E040E487DFC5FF04C0C80167E040E2CC
:1019900081DF8D2DDF91CF911F910F91FF90EF90FF
:1019A000DF90089560E070E0CACF462F603808F0FD
:1019B0004FE765E06FCFEF92FF920F931F93CF93A6
:1019C000DF937C01162FEA01022F60E070E040DE19
:1019D0001F7110621EBD0DB407FEFDCF1EB508C0FD
:1019E00088818EBD0DB407FEFDCF21968EB50150C6
:1019F0000023B1F7C70161E070E02ADE812FDF919B
:101A0000CF911F910F91FF90EF900895EF92FF9269
:101A10000F931F93DF93CF93CDB7DEB728970FB601
:101A2000F894DEBF0FBECDBF7C0109831A832B83E0
:101A30003C834D835E836F8378878E010F5F1F4FDA
:101A40006AE0A80125E0B7DFC70160E1A80125E051
:101A5000B2DFF7014481413208F040E2C70161E1A1
:101A600019DF28960FB6F894DEBF0FBECDBFCF9119
:101A7000DF911F910F91FF90EF9008951F93CF93E7
:101A8000DF93EC01162F60E070E0E2DD1F711EBDF8
:101A90000DB407FEFDCF8EB58FEF8EBD0DB407FEE2
:101AA000FDCF1EB5CE0161E070E0D2DD812FDF9168
:101AB000CF911F91089564E0E1CFFDDF282F30E042
:101AC0002F7030704AEF50E0B901649F9001659F1C
:101AD000300D749F300D112482958F7090E0019627
:101AE000A901489F9001499F300D589F300D112446
:101AF000C901089560E0C2DF8C7083FD03C020E05F
:101B000030E007C082FD03C021E030E002C022E0E7
:101B100030E0C90108950F931F93CF93DF938C0199
:101B2000EB0160E0ABDF482F437F209729F021973E
:101B300011F4486001C04C60C80160E0ABDEDF9189
:101B4000CF911F910F91089566E098DF88728032DF
:101B500019F422E030E006C020E030E0883011F4D3
:101B600021E030E0C9010895FF920F931F93CF93B6
:101B7000DF93EC018B0166E081DF1A82B7EDFB2E6B
:101B8000F8220230110511F480E206C0013011057F
:101B900029F481E08A8388E0F82A01C01A82CE0104
:101BA00066E04F2D77DECE0166E068DF8F1511F419
:101BB00081E002C01A8280E0DF91CF911F910F91E6
:101BC000FF90089566E05ADF8670863019F423E0AE
:101BD00030E00BC0843019F422E030E006C020E091
:101BE00030E0823011F421E030E0C90108950F9314
:101BF0001F93CF93DF938C01EB0166E03FDF482F0B
:101C0000497FC330D10571F0C230D10511F4446071
:101C10000AC0C130D10511F4426005C0209719F007
:101C2000249709F44660C80166E034DEDF91CF9165
:101C30001F910F910895CF93DF93EC016DE11EDFAB
:101C4000482F4460CE016DE125DECE016DE116DF47
:101C5000882351F4CE010FDDCE016DE10FDF482F57
:101C60004460CE016DE116DECE016CE107DF482F46
:101C70004F63CE016CE10EDE81E08E83DF91CF9168
:101C80000895BF92CF92DF92EF92FF920F931F932E
:101C9000DF93CF93CDB7DEB728970FB6F894DEBFAA
:101CA0000FBECDBF6C01B62EE982FA820B831C8376
:101CB0002D833E834F835887662389F4F601E0869F
:101CC0008A8181878B8182878C8183878D818487BC
:101CD0008E8185878F8186878885878707C0F6E014
:101CE000F61708F439C081E0681761F4EB2DF0E0D5
:101CF000E259FF4FE491C6016E2FAE014F5F5F4F77
:101D000025E00BC0E62FF0E0E259FF4FE491C60159
:101D10006E2FAE014F5F5F4F21E04DDE0B2D10E0C7
:101D2000F801EC58FF4FE491C6016E2FF601448193
:101D3000B1DDC60162E0A2DE08591F4FF8016491CF
:101D400021E030E002C0220F331F6A95E2F7482FEE
:101D5000422BC60162E09EDD28960FB6F894DEBFE6
:101D60000FBECDBFCF91DF911F910F91FF90EF90EC
:101D7000DF90CF90BF9008950F931F938C0100DDEB
:101D8000C80167E17BDE81701F910F910895EF928A
:101D9000FF920F931F93CF93DF93EC017B01042FEE
:101DA000122F60E06BDE482F4C7F4260CE0160E076
:101DB00071DD86E990E0AADB112311F420EA01C06D
:101DC00020EBCE01B701402F20DD888161E000D3F8
:101DD0008AE090E09BDB888160E0FAD2DF91CF91CE
:101DE0001F910F91FF90EF9008950F931F938C0117
:101DF00060E044DE482F4260C80160E04BDD86E9C8
:101E000090E084DB1F910F910895CF93DF93EC0155
:101E100060E034DE482F4360CE0160E03BDDCE0160
:101E200067E040E737DD88859985892B9A85892B7E
:101E30009B85892B9C85892B9D85892B9E85892B4C
:101E40009F85892B39F0AE01485F5F4FCE016AE074
:101E500025E0B1DDCE0170DCCE0158DC888161E087
:101E6000B7D282E890E052DBDF91CF910895CF9214
:101E7000DF92FF920F931F93CF93DF936C01EB01DF
:101E8000042FF22ECB010E947002089710F020E080
:101E900001C029E000D000D000D0EDB7FEB73196E8
:101EA00087E591E0ADB7BEB712969C938E931197DC
:101EB000D383C283822F992787FD9095958384834E
:101EC0000E94D802EDB7FEB736960FB6F894FEBF63
:101ED0000FBEEDBFCFE4D1E01AC0102F1F5FC601C7
:101EE000602FCCDD00D000D0EDB7FEB73196ADB796
:101EF000BEB71296DC93CE931197828313820E9411
:101F0000D802FA94012F0F900F900F900F90FF209E
:101F100021F700D08CE491E0EDB7FEB79283818386
:101F20000E94D8020F900F90DF91CF911F910F91D7
:101F3000FF90DF90CF900895CF93DF93EC018881DD
:101F400061E007D2898161E004D2B5D2888160E086
:101F50003FD2CE0161E070E07BDB65E070E080E0C5
:101F600090E07BDACE0164E04FE594DCCE0163E0E3
:101F700070E03DDECE0162E070E0F6DD882311F016
:101F800081E08B83CE0160E070E0EEDDCE0162E0A7
:101F900070E0C1DDCE016CE140E07CDCCE0167E0A9
:101FA00040E778DCCE016CE400DDCE01C5DBCE017C
:101FB000ADDBDF91CF910895EF92FF920F931F93C6
:101FC000CF93DF937C01162FEA01022F60E070E0CF
:101FD0003FDB1F711EBD0DB407FEFDCF1EB59FEF89
:101FE00007C09EBD0DB407FEFDCF8EB5899301508D
:101FF0000023B9F7C70161E070E02ADB812FDF9190
:10200000CF911F910F91FF90EF9008956F927F9263
:102010008F929F92AF92BF92CF92DF92EF92FF92F8
:102020000F931F93DF93CF9300D00F92CDB7DEB7FE
:102030008C01ADDEECD94B015C01C8013EDD3E01F7
:102040000894611C711C6C01EE24FF24C80168E037
:10205000A30121E0B1DF807311F5D9D9681979099D
:102060008A099B096C157D058E059F05C0F4EECF8E
:10207000C8011ADBF80187838F2D0F900F900F9006
:10208000CF91DF911F910F91FF90EF90DF90CF9054
:10209000BF90AF909F908F907F906F900895980120
:1020A0002B5F3F4FC801BE016E5F7F4FAE014D5F9A
:1020B0005F4F18DCFA80F80185818823E9F2D8CFD8
:1020C0004F925F926F927F928F929F92AF92BF9248
:1020D000CF92DF92EF92FF920F931F93DF93CF93F4
:1020E00000D000D00F92CDB7DEB76C018B01E42E8B
:1020F000F22ECB010E947002089710F020E001C080
:1021000029E000D000D000D0EDB7FEB7319684E4CE
:1021100091E0ADB7BEB712969C938E93119713833F
:102120000283822F992787FD9095958384830E944F
:10213000D802EDB7FEB736960FB6F894FEBF0FBEC5
:10214000EDBF2E010894411C511C80E4682E81E0F3
:10215000782E06E0802E912C8C0E9D1E1BE3A12E66
:1021600011E0B12E2EC0C6016E2DA20125E024DFA4
:1021700000D0ADB7BEB712967C926E9211970E94B6
:10218000D80284010F900F9015C000D000D0EDB799
:10219000FEB73196ADB7BEB71296BC92AE9211970C
:1021A000D8018C91828313820E94D8020F900F90E5
:1021B0000F900F90015010400C171D0731F7E3945A
:1021C000FA94FF2081F600D088E391E0EDB7FEB7E6
:1021D000928381830E94D8020F900F900F900F90EE
:1021E0000F900F900F90CF91DF911F910F91FF9063
:1021F000EF90DF90CF90BF90AF909F908F907F90A7
:102200006F905F904F9008950F931F938C0168DA41
:10221000682FC801D3D9C8016BE271E04AE022E01F
:102220004FDFC8016EE171E04CE024E020DEC80120
:1022300066E171E040E121E043DFC8016BE071E05D
:1022400041E126E014DEC80165E071E041E021E0F3
:102250000EDEC8016BEF70E042E021E008DEC8014D
:1022600065EF70E045E021E002DEC8016CEE70E051
:1022700046E021E0FCDDC80165EE70E040E021E0D1
:10228000F6DDC80167ED70E04CE122E0F0DDC80149
:102290005BDCFC01EE0FFF1FE658FF4F25913491E8
:1022A00000D000D085EC90E0EDB7FEB7928381833B
:1022B000348323830E94D802F8018381E82FF0E061
:1022C000EE0FFF1FE058FF4F2591349186EB90E011
:1022D000EDB7FEB792838183348323830E94D802B3
:1022E0000F900F900F900F90C80104DCFC01EE0FCF
:1022F000FF1FEC57FF4F2591349100D000D083EAA7
:1023000090E0EDB7FEB792838183348323830E94EC
:10231000D8020F900F900F900F90C80153DCFC0172
:10232000EE0FFF1FE657FF4F2591349100D000D0EC
:1023300082E990E0EDB7FEB79283818334832383F3
:102340000E94D8020F900F900F900F901F910F9145
:102350000895CF93DF93482F50E0CA01835A9D4FD1
:10236000FC013491475B5D4FFA018491882369F148
:1023700090E0880F991FFC01E55DFD4FA591B49198
:10238000FC01EB5CFD4FC591D491662351F42FB74E
:10239000F8948C91932F909589238C93888189232D
:1023A0000BC0623061F42FB7F8948C91932F909505
:1023B00089238C938881832B88832FBF06C09FB786
:1023C000F8948C91832B8C939FBFDF91CF910895CC
:1023D000482F50E0CA018F589D4FFC012491CA013B
:1023E000835A9D4FFC019491475B5D4FFA013491F4
:1023F000332309F440C0222351F1233071F02430FB
:1024000028F42130A1F0223011F514C02630B1F0AB
:102410002730C1F02430D9F404C0809180008F7738
:1024200003C0809180008F7D8093800010C084B5B0
:102430008F7702C084B58F7D84BD09C08091B000C4
:102440008F7703C08091B0008F7D8093B000E32F21
:10245000F0E0EE0FFF1FEB5CFD4FA591B4912FB79D
:10246000F894662321F48C919095892302C08C9175
:10247000892B8C932FBF0895882319F48CB5806223
:1024800002C08CB58F7D8CBD08959CB5937F982B31
:102490009CBD08952CB5382F33702C7F322B3CBD5A
:1024A0002DB590E0959587959595879581702E7FB0
:1024B000822B8DBD08958AE061E08ADF8AE061E0C9
:1024C00048DF8CB580618CBD8CB580648CBD8DE09F
:1024D00061E03FDF8BE061E03CCFAA1BBB1B51E119
:1024E00007C0AA1FBB1FA617B70710F0A61BB70B84
:1024F000881F991F5A95A9F780959095BC01CD0129
:102500000895A1E21A2EAA1BBB1BFD010DC0AA1F34
:10251000BB1FEE1FFF1FA217B307E407F50720F04C
:10252000A21BB30BE40BF50B661F771F881F991FC7
:102530001A9469F760957095809590959B01AC0110
:10254000BD01CF010895EE0FFF1F0590F491E02D1E
:1025500009942F923F924F925F926F927F928F9247
:102560009F92AF92BF92CF92DF92EF92FF920F9322
:102570001F93CF93DF93CDB7DEB7CA1BDB0B0FB62C
:10258000F894DEBF0FBECDBF09942A8839884888E9
:102590005F846E847D848C849B84AA84B984C8847F
:1025A000DF80EE80FD800C811B81AA81B981CE0F76
:1025B000D11D0FB6F894DEBF0FBECDBFED0108955B
:0425C000F894FFCFBD
:1025C4004E6F772073656E64696E6720256C752E77
:1025D4002E2E006F6B2E2E2E006661696C65642EA4
:1025E4000A0D004661696C65642C20726573706F16
:1025F4006E73652074696D6564206F75742E0A0DA1
:102604000054696D656F7574206475726174696FC7
:102614006E3A2025640A0D00476F7420726573704A
:102624006F6E736520256C752C20726F756E642D2A
:10263400747269702064656C61793A20256C750A3E
:102644000D0053656E7420726573706F6E73652030
:10265400256C750A0D000A0D524632342F657861D7
:102664006D706C65732F70696E67706169722F0A83
:102674000D00524F4C453A2025730A0D00696E76C1
:10268400616C69640050696E67206F757400506FE7
:102694006E67206261636B002000C3020000BD010D
:1026A400C501CE0100000000E60887097C08AD08DA
:0426B4008D08D608AF
:00000001FF
