:100000000C94C6010C94EE010C94EE010C94EE01DC
:100010000C94EE010C94EE010C94EE010C94EE01A4
:100020000C94EE010C94EE010C94EE010C94EE0194
:100030000C94EE010C94EE010C94EE010C94EE0184
:100040000C94F30B0C94EE010C94AA090C94F8098F
:100050000C94EE010C94EE010C94EE010C94EE0164
:100060000C94EE010C94EE010001020304050A0B4E
:100070000C0D0E0F111213141516CF01D501DB0153
:10008000E301EC01F601FF0106020E0215021C025B
:100090002402504120506F77657209203D2025537E
:1000A0000D0A00435243204C656E67746809203D79
:1000B0002025530D0A004D6F64656C0909203D2011
:1000C00025530D0A00446174612052617465092052
:1000D0003D2025530D0A0044594E50442F464541BA
:1000E0005455524500434F4E4649470052465F53D0
:1000F000455455500052465F434800454E5F5258A4
:100100004144445200454E5F41410052585F5057B0
:100110005F50302D360054585F41444452005258CD
:100120005F414444525F50322D350052585F414484
:1001300044525F50302D31000D0A002530327800D6
:10014000203078002553092563203D000D0A00204A
:10015000307825303278002553092563203D004F43
:100160004253455256455F54583D253032783A2027
:10017000504F4C535F434E543D2578204152435FCE
:10018000434E543D25780D0A0053544154555309AC
:1001900009203D203078253032782052585F445273
:1001A0003D25782054585F44533D2578204D4158D3
:1001B0005F52543D25782052585F505F4E4F3D2589
:1001C000782054585F46554C4C3D25780D0A003137
:1001D0004D42505300324D425053003235304B4265
:1001E0005053006E524632344C3031006E5246321B
:1001F000344C30312B0044697361626C65640038A3
:100200002062697473003136206269747300504152
:100210005F4D494E0050415F4C4F570050415F4881
:100220004947480050415F4D4158000000000024FC
:100230000027002A0000000000250028002B0000F5
:100240000000002300260029000404040404040420
:100250000402020202020203030303030301020475
:100260000810204080010204081020010204081038
:100270002000000007000201000003040600000047
:1002800000000000006E616E00696E660000407A3A
:1002900010F35A00A0724E18090010A5D4E800000F
:1002A000E87648170000E40B54020000CA9A3B00AD
:1002B0000000E1F505000080969800000040420F24
:1002C000000000A08601000000102700000000E8E8
:1002D00003000000006400000000000A00000000AD
:1002E000000100000000002C76D888DC674F08234E
:1002F000DFC1DFAE59E1B1B796E5E3E453C63AE6B4
:1003000051997696E8E6C28426EB898C9B62ED4093
:100310007C6FFCEFBC9C9F40F2BAA56FA5F49005E2
:100320005A2AF75C936B6CF9676DC11BFCE0E40D16
:1003300047FEF520E6B500D0ED902E03009435770A
:10034000050080841E080000204E0A000000C80C32
:10035000333333330F986E12831141EF8D2114899B
:100360003BE65516CFFEE6DB18D1844B381BF77CF5
:100370001D901DA4BBE424203284725E228100C93A
:10038000F124ECA1E53D2700A608640B11241FBE53
:10039000CFEFD8E0DEBFCDBF11E0A0E0B1E0ECE0F0
:1003A000FBE202C005900D92AA38B107D9F712E01E
:1003B000AAE8B1E001C01D92A339B107E1F713E04B
:1003C000CCE8D3E004C02297FE010E948015C83813
:1003D000D107C9F70E94BA0B0C9484150C94000045
:1003E000A1E1B0E0E6EFF1E00C9447153C017F8716
:1003F0006E876A01FC0117821682838181FD03C02A
:100400006FEF7FEF71C39E012F5F3F4F398B288BBA
:10041000F3012381EE85FF8523FD859123FF8191E3
:10042000FF87EE87882309F45CC3853251F4EE859B
:10043000FF8523FD859123FF8191FF87EE8785321C
:1004400029F490E0B3010E94BE07E2CF982F10E09C
:10045000882499241032B0F49B3269F09C3228F43D
:10046000903251F0933271F40BC09D3239F09033D9
:1004700049F4116028C01260146025C0186023C0C0
:10048000106121C017FD2AC0892F80538A3078F46B
:1004900016FF06C0FAE09F9E902C1124980E13C000
:1004A0003AE0839E802C1124880E10620CC09E328C
:1004B00021F416FD16C3106406C09C3611F41068B2
:1004C00002C0983659F4EE85FF8523FD959123FFF0
:1004D0009191FF87EE87992309F0BCCF892F85542E
:1004E000833020F4812F8061905E07C0892F85566C
:1004F000833008F0A1C1812F8F7E86FD02C076E097
:10050000972E6FE3F62EF822953619F4F0E4FF2AC1
:1005100007C0963619F420E8F22A02C091109A9486
:10052000F7FE0BC03BE3391520F427E05CE3B52E62
:100530000EC0B92CB39427E00AC047E0491528F44F
:1005400027E0BB2447E0942E02C0292DBB24C6011E
:1005500004969D878C87F6016081718182819381E9
:10056000AE014F5F5F4F0B2D0E947B066C0109812E
:10057000202E332400FF04C003FD02C01DE209C089
:10058000F1FE02C01BE205C0F2FC02C010E001C097
:1005900010E2C1018C709070892BB9F1112311F414
:1005A00083E001C084E0881510F088240AC0881A0E
:1005B000F3FC07C080E290E0B3010E94BE078A947A
:1005C000C9F7112329F0812F90E0B3010E94BE07E3
:1005D00023FE03C005E812E00EC009E812E00BC0DC
:1005E000E114F10409F0805290E0B3010E94BE07CB
:1005F0000F5F1F4F05C0EF2CFF24F0E1EF22FF2417
:10060000F8018491882361F714C1F7FE12C0BC0C75
:1006100024FE04C08A81813309F4BA941B141CF0AF
:10062000BB24B3942DC0F8E0FB1550F538E0B32E91
:1006300027C0F6FC25C0892D90E08C159D054CF057
:100640002CEFC2162FEFD20624F030E8F32A01C0B7
:100650009A94992049F0E2E0F0E0EC0FFD1FE90DDB
:10066000F11D80818033A1F3F7FE0AC0B92CB39449
:10067000892D90E0C816D90614F0992401C09C1861
:10068000F7FC03C025E030E009C01C141D041CF079
:1006900021E030E003C096012F5F3F4F112311F09E
:1006A0002F5F3F4F992029F0892D90E00196280F68
:1006B000391F882D90E02817390714F0882401C0CD
:1006C000821A4F2C5524C20189709070892B39F001
:1006D00008C080E290E0B3010E94BE078A9488209F
:1006E000C1F7112329F0812F90E0B3010E94BE07CA
:1006F00043FE07C008C080E390E0B3010E94BE073C
:100700008A948820C1F7F7FE46C08601D7FE02C052
:1007100000E010E076010894E11CF11CE01AF10AF7
:1007200041E050E04C0F5D1FE40EF51E26014B1812
:100730005108892D90E0AA24BB24A81AB90A5FEFBA
:100740000F3F150729F48EE290E0B3010E94BE0727
:10075000C016D10634F0401651061CF4F701808112
:1007600001C080E3015010400894E11CF11C0A15FF
:100770001B052CF090E0B3010E94BE07E0CF0C15E2
:100780001D0539F49A81963318F4953311F424FE3B
:1007900081E390E04BC08A81813309F00F7E90E0C5
:1007A000B3010E94BE079920A1F08EE290E0B30150
:1007B0000E94BE0712E0E1E0F0E0EC0FFD1FE10F48
:1007C000F11D1F5F808190E0B3010E94BE079A94E3
:1007D00091F744FC03C085E690E002C085E490E018
:1007E000B3010E94BE07D7FC05C0C114D10441F477
:1007F00004FF06C0D094C194D108D3948DE201C007
:100800008BE290E0B3010E94BE0780E305C08F5FDA
:1008100026EF3FEFC20ED31E3AE0C316D104BCF759
:1008200090E0B3010E94BE07C601C096B3010E94CA
:10083000BE07CC84DD8452C1933631F0933799F0F2
:10084000933509F059C023C0F601808189835E0188
:100850000894A11CB11C22E030E0C20ED31E21E09E
:10086000E22EF12C12C0F601A080B18016FD03C06B
:100870006FEF7FEF02C0692D70E022E030E0C20E22
:10088000D31EC5010E9467077C011F7713C0F601C4
:10089000A080B18016FD03C06FEF7FEF02C0692D0D
:1008A00070E022E030E0C20ED31EC5010E945C075A
:1008B0007C01106813FF07C01BC080E290E0B30109
:1008C0000E94BE078A94882D90E0E816F906A8F3E6
:1008D0000FC0F50117FD859117FF81915F0190E031
:1008E000B3010E94BE0781108A940894E108F108C0
:1008F000E114F10471F7F2C0943611F0993689F5DC
:1009000017FF08C0F601208131814281538184E0C4
:1009100090E00AC0F601808191819C01442737FD57
:100920004095542F82E090E0C80ED91E9FE6F92E24
:10093000F12257FF09C050954095309521953F4FC2
:100940004F4F5F4F90E8F92ACA01B901AE014F5FDE
:100950005F4F2AE030E00E942508E82EE889EE1A71
:1009600041C0953721F41F7E2AE030E01CC0197F7A
:100970009F3661F0903720F4983509F0B2C00FC06F
:10098000903739F0983709F0ACC004C028E030E067
:100990000AC0106114FD146020E130E004C014FDB1
:1009A000166020E132E017FF08C0F6016081718116
:1009B0008281938144E050E008C0F60180819181FA
:1009C000BC0180E090E042E050E0C40ED51EAE01D4
:1009D0004F5F5F4F0E942508E82E5889E51A8FE780
:1009E000F82EF122F6FE0BC08EEFF822E91438F44F
:1009F000F4FE07C0F2FC05C09FEEF92202C01E2DD6
:100A000001C0192DF4FE0DC0FE01EE0DF11D808117
:100A1000803319F4E9EEFE2208C01F5FF2FE05C024
:100A200003C08F2D867809F01F5F0F2DF3FC14C0D3
:100A3000F0FE0FC0181510F09E2C0BC09E2C980CC9
:100A4000911A182D06C080E290E0B3010E94BE0703
:100A50001F5F1815C0F304C0181510F4811A01C0E7
:100A6000882404FF0FC080E390E0B3010E94BE071A
:100A700002FF1DC001FD03C088E790E00EC088E5BD
:100A800090E00BC0802F867891F001FF02C08BE2CE
:100A900001C080E2F7FC8DE290E0B3010E94BE0746
:100AA00006C080E390E0B3010E94BE079A94E91467
:100AB000C0F3EA94E1E0F0E0EC0FFD1FEE0DF11D54
:100AC000808190E0B3010E94BE07EE2091F706C03E
:100AD00080E290E0B3010E94BE078A948820C1F7AB
:100AE00097CCF30166817781CB016196E2E10C94AA
:100AF0006315CF93DF93BC018230910510F462E05F
:100B000070E0A0918B02B0918C02ED01E0E0F0E08A
:100B100040E050E021C0888199818617970769F4E9
:100B20008A819B81309719F09383828304C09093CC
:100B30008C0280938B02FE0134C06817790738F469
:100B40004115510519F08417950708F4AC01FE0111
:100B50008A819B819C01E9012097E9F641155105A5
:100B6000A9F1CA01861B970B049708F4BA01E0E0CB
:100B7000F0E02AC08D919C91119784179507F9F4A4
:100B80006417750781F412968D919C911397309795
:100B900019F09383828304C090938C0280938B021C
:100BA000FD0132964CC0CA01861B970BFD01E80F70
:100BB000F91F6193719302978D939C9340C0FD013F
:100BC000828193819C01D9011097A1F680918902BD
:100BD00090918A02892B41F480916F01909170016C
:100BE00090938A0280938902409171015091720121
:100BF0004115510541F44DB75EB780916D0190915B
:100C00006E01481B590B2091890230918A02CA015A
:100C1000821B930B8617970780F0AB014E5F5F4FE7
:100C20008417950750F0420F531F50938A02409348
:100C30008902F9016193719302C0E0E0F0E0CF0115
:100C4000DF91CF910895CF93DF93009709F450C0BF
:100C5000EC0122971B821A82A0918B02B0918C0228
:100C6000109709F140E050E0AC17BD0708F1BB83D5
:100C7000AA83FE0121913191E20FF31FAE17BF0746
:100C800079F48D919C911197280F391F2E5F3F4F5A
:100C90003983288312968D919C9113979B838A8325
:100CA0004115510571F4D0938C02C0938B0220C082
:100CB00012968D919C911397AD01009711F0DC0174
:100CC000D3CFFA01D383C28321913191E20FF31F75
:100CD000CE17DF0769F488819981280F391F2E5FAD
:100CE0003F4FFA01318320838A819B8193838283E2
:100CF000DF91CF910895283008F027E03327DA01FB
:100D0000990F311D87FD916000966105710539F4D9
:100D100032602E5F3D9330E32A95E1F708959F3FBF
:100D200030F080387105610509F03C5F3C5F3D9310
:100D3000913008F08068911DDF93CF931F930F933C
:100D4000FF92EF92192F987F9695E92F9695969599
:100D5000E90FFF27E951FD4F99273327EE24FF24A0
:100D6000A701E70105900894079428F4360FE71EC1
:100D7000F81E491F511D660F771F881F991F069483
:100D8000A1F70590079428F4E70EF81E491F561F97
:100D9000C11D770F881F991F661F0694A1F7059044
:100DA000079428F4F80E491F561FC71FD11D880F3E
:100DB000991F661F771F0694A1F70590079420F4EA
:100DC000490F561FC71FD81F990F661F771F881F0F
:100DD0000694A9F784911095177041F0D695C795A0
:100DE00057954795F794E7941A95C1F7EDE8F2E027
:100DF00068941590159135916591959105907FE2D4
:100E00007395E118F10A430B560BC90BD009C0F7D3
:100E1000E10CF11E431F561FC91FD01D7EF4703315
:100E200011F48A95E6CFE894015030F0080F0AF4E7
:100E30000027021708F4202F2395022F7A3328F079
:100E400079E37D932A95E9F710C07D932A9589F679
:100E5000069497956795379517951794E118F10AB9
:100E6000430B560BC90BD00998F023957E917395CF
:100E70007A3308F070E37C932013B8F77E917061A9
:100E80007D9330F0839571E37D9370E32A95E1F7CC
:100E90001124EF90FF900F911F91CF91DF9199272F
:100EA00087FD90950895FC0105900020E9F7809555
:100EB00090958E0F9F1F0895FC0105906150704022
:100EC0000110D8F7809590958E0F9F1F0895FC0113
:100ED0006150704001900110D8F7809590958E0F69
:100EE0009F1F08950F931F93CF93DF938C01EB0106
:100EF000009731F46115710519F420E030E038C035
:100F000081E090E06EE070E00E948308FC019C01AB
:100F1000009771F180E88383209771F0D387C287AF
:100F200081E8838380918D0290918E02892B21F438
:100F3000F0938E02E0938D0201151105C9F011871F
:100F4000008783818260838380918F0290919002D9
:100F5000892B71F4F0939002E0938F0280919102BB
:100F600090919202892B21F4F0939202E0939102E6
:100F7000C901DF91CF911F910F9108950F931F9396
:100F8000CF93DF938C01EB018B8181FF1BC082FF2C
:100F90000DC02E813F818C819D812817390764F413
:100FA000E881F9810193F983E88306C0E885F98532
:100FB000802F0995892B31F48E819F8101969F8323
:100FC0008E8302C00FEF1FEFC801DF91CF911F91F9
:100FD0000F910895A0E0B0E0E0EFF7E00C94571512
:100FE000FE0135966191719180918F0290919002EE
:100FF000AF010E94F0012096E2E00C947315A0E08E
:10100000B0E0E5E0F8E00C945715FE0135966191EB
:101010007191A0918F02B091900213968C911397C9
:10102000886013968C9380918F0290919002AF010B
:101030000E94F001E0918F02F09190022381277FBE
:1010400023832096E2E00C947315FA01AA27283036
:1010500051F1203181F1E8946F936E7F6E5F7F4F85
:101060008F4F9F4FAF4FB1E03ED0B4E03CD0670F01
:10107000781F891F9A1FA11D680F791F8A1F911D54
:10108000A11D6A0F711D811D911DA11D20D009F4A4
:1010900068943F912AE0269F11243019305D3193E6
:1010A000DEF6CF010895462F4770405D4193B3E0CF
:1010B0000FD0C9F7F6CF462F4F70405D4A3318F076
:1010C000495D31FD4052419302D0A9F7EACFB4E027
:1010D000A6959795879577956795BA95C9F70097DF
:1010E0006105710508959B01AC010A2E0694579580
:1010F000479537952795BA95C9F7620F731F841FD7
:10110000951FA01D08950F931F93CF93DF93689FA2
:101110008001699F100D789F100D1124C8010E9455
:101120007905EC01009729F060E070E0A8010E94C9
:101130009F08CE01DF91CF911F910F910895DC019F
:1011400001C06D9341505040E0F708958AE891E066
:1011500068E047E00E94FF0C08950F931F938AE810
:1011600091E00E94230F882309F467C08AE891E088
:1011700069EB71E04DE10E9431118823B9F38AE8EF
:1011800091E00E94F40D8DB79EB70A970FB6F894C0
:101190009EBF0FBE8DBFEDB7FEB7319680E091E0E8
:1011A000ADB7BEB712969C938E9311978091B901FB
:1011B0009091BA019383828306EC11E01583048336
:1011C0008091C1019091C201A091C301B091C4016D
:1011D00086839783A087B1870E94EA07ACE9B1E0D4
:1011E000F8013D978DE101900D928150E1F786E87D
:1011F00093E090939D0180939C0185E893E0909308
:101200009F0180939E0183E090E09093A1018093E1
:10121000A0018DB79EB70A960FB6F8949EBF0FBE79
:101220008DBF8AE891E06CE971E04DE120E00E9419
:10123000A2128AE891E00E9486111F910F910895F1
:101240008AE999E060E070E00E9472070895CF9209
:10125000DF92EF92FF920F931F938EE592E040E8AA
:1012600055E260E070E00E94330A0E94200900D03D
:101270008BE291E0EDB7FEB7928381830E94EA078B
:1012800000D087E491E0EDB7FEB792838183E091CF
:101290009A01F0919B01EE0FFF1FED58FE4F8081E8
:1012A0009181EDB7FEB7948383830E94EA070F9084
:1012B0000F900F900F904AE8C42E41E0D42EC60143
:1012C0000E942612C60161E070E00E945E10C60115
:1012D0006CE40E94280FC60102ED10EF20EF30EF02
:1012E00040EF50E060E070E00E945D0FC60161E0F9
:1012F00031EEE32E20EFF22E00EF20EF30E040E061
:1013000050E00E94B210C6010E948410C60161E044
:101310000E94B50EC6010E947311C6010E9486117B
:10132000C6010E94A8131F910F91FF90EF90DF90CC
:10133000CF9008950F931F93082F112707FD109545
:101340008EE592E0602F0E94240BC8011F910F913F
:10135000089508951F920F920FB60F9211242F93A4
:101360003F934F938F939F93EF93FF938091C00090
:1013700082FD1DC04091C6002091160230911702D7
:101380002F5F3F4F2F733070809118029091190298
:101390002817390771F0E0911602F0911702EA520E
:1013A000FE4F4083309317022093160202C08091B3
:1013B000C600FF91EF919F918F914F913F912F9197
:1013C0000F900FBE0F901F901895E0916A02F09158
:1013D0006B02E05CFF4F8191919120813181821BF2
:1013E000930B8F739070892B11F00E94A9090895B7
:1013F0001F920F920FB60F9211242F933F938F934A
:101400009F93EF93FF9320915A0230915B0280915A
:101410005C0290915D022817390731F48091C10078
:101420008F7D8093C10014C0E0915C02F0915D0259
:10143000E65EFD4F208180915C0290915D020196F5
:101440008F73907090935D0280935C022093C6002E
:10145000FF91EF919F918F913F912F910F900FBE30
:101460000F901F901895AF92BF92DF92EF92FF926C
:101470000F931F93CF93DF93EC017A018B01DD244F
:10148000403081EE580780E0680780E0780711F06F
:10149000DD24D39491E0A92EB12CEC89FD89DD20C7
:1014A00069F0C50108A002C0880F991F0A94E2F7ED
:1014B000808360E079E08DE390E005C0108260E811
:1014C00074E88EE190E0A80197010E942515215053
:1014D000304040405040569547953795279580E1DC
:1014E0002030380720F0DD2011F0DD24D6CFE88948
:1014F000F9893083EA89FB89208319A2EE89FF8963
:10150000408121E030E0C9010C8C02C0880F991F96
:101510000A94E2F7482B4083EE89FF894081C90194
:101520000D8C02C0880F991F0A94E2F7482B408364
:10153000EE89FF894081C9010E8C02C0880F991F76
:101540000A94E2F7482B4083EE89FF8980810F8C53
:1015500002C0220F331F0A94E2F72095282320832C
:10156000DF91CF911F910F91FF90EF90DF90BF908F
:10157000AF900895DC011C96ED91FC911D97E05C05
:10158000FF4F2191319180819181281B390B2F735D
:101590003070C9010895DC011C96ED91FC911D97F6
:1015A000E05CFF4F20813181E054F040DF01AE5B11
:1015B000BF4F8D919C9111972817390719F42FEF80
:1015C0003FEF07C08D919C91E80FF91F8081282F74
:1015D00030E0C9010895DC011C96ED91FC911D9746
:1015E000E05CFF4F20813181E054F040DF01AE5BD1
:1015F000BF4F8D919C9111972817390719F42FEF40
:101600003FEF10C08D919C911197E80FF91F208139
:101610008D919C91119701968F73907011969C9368
:101620008E9330E0C9010895DC0191968C919197D9
:10163000882339F05496ED91FC915597808186FF6F
:10164000F9CF91961C920895CF93DF93EC01EE852C
:10165000FF85E05CFF4F20813181E054F0402F5F37
:101660003F4F2F733070DF01AE5BBF4F8D919C9168
:10167000119728173907D1F3E05CFF4F80819181E2
:10168000E054F040E80FF91F6083EE85FF85E05CD1
:10169000FF4F31832083EE89FF89208181E090E034
:1016A0000F8C02C0880F991F0A94E2F7282B208321
:1016B00081E089A3EC89FD8980818064808381E059
:1016C00090E0DF91CF910895109261021092600234
:1016D00088EE93E0A0E0B0E0809362029093630212
:1016E000A0936402B09365028DE791E090935F024E
:1016F00080935E0286ED91E090936B0280936A0284
:101700008AE192E090936D0280936C0285EC90E008
:1017100090936F0280936E0284EC90E0909371023C
:101720008093700280EC90E0909373028093720239
:1017300081EC90E0909375028093740282EC90E0CB
:10174000909377028093760286EC90E090937902F2
:101750008093780284E080937A0283E080937B0216
:1017600087E080937C0285E080937D0281E0809316
:101770007E020895CF93DF930E94C40C0E94270934
:10178000C5EED9E00E94AD082097E1F30E94E5097B
:10179000F9CFCF92DF92EF92FF920F931F93CF93E7
:1017A000DF937C016B018A01C0E0D0E00FC0D6015D
:1017B0006D916D01D701ED91FC910190F081E02DCB
:1017C000C7010995C80FD91F015010400115110517
:1017D00071F7CE01DF91CF911F910F91FF90EF90A4
:1017E000DF90CF9008951F920F920FB60F921124A1
:1017F0002F933F938F939F93AF93BF9380918402D6
:1018000090918502A0918602B09187023091880262
:101810000196A11DB11D232F2D5F2D3720F02D57CF
:101820000196A11DB11D209388028093840290939C
:101830008502A0938602B0938702809180029091E6
:101840008102A0918202B09183020196A11DB11D77
:101850008093800290938102A0938202B0938302CE
:10186000BF91AF919F918F913F912F910F900FBE9C
:101870000F901F9018959FB7F89420918002309197
:101880008102409182025091830286B5A89B06C0D6
:101890008F3F21F02F5F3F4F4F4F5F4F9FBF542F20
:1018A000432F322F2227280F311D411D511D82E069
:1018B000220F331F441F551F8A95D1F7B901CA0162
:1018C00008959B01AC017FB7F894809180029091BC
:1018D0008102A0918202B091830266B5A89B05C0E7
:1018E0006F3F19F00196A11DB11D7FBFBA2FA92F1F
:1018F000982F8827860F911DA11DB11D62E0880FCA
:10190000991FAA1FBB1F6A95D1F7BC012DC0FFB755
:10191000F8948091800290918102A0918202B0910E
:101920008302E6B5A89B05C0EF3F19F00196A11D03
:10193000B11DFFBFBA2FA92F982F88278E0F911D99
:10194000A11DB11DE2E0880F991FAA1FBB1FEA95D8
:10195000D1F7861B970B885E9340C8F22150304028
:101960004040504068517C4F2115310541055105DB
:1019700071F60895019739F0880F991F880F991F04
:1019800002970197F1F70895789484B5826084BD39
:1019900084B5816084BD85B5826085BD85B5816073
:1019A00085BDEEE6F0E0808181608083E1E8F0E0D3
:1019B0001082808182608083808181608083E0E802
:1019C000F0E0808181608083E1EBF0E080818460E1
:1019D0008083E0EBF0E0808181608083EAE7F0E0E3
:1019E0008081846080838081826080838081816047
:1019F00080838081806880831092C1000895FC01FB
:101A00006083418381E08283138280E28483158234
:101A100016821086118612861386148615861686FF
:101A20001786089570E08DB79EB70E970FB6F8949D
:101A30009EBF0FBE8DBFEDB7FEB7319689E891E02E
:101A4000ADB7BEB712969C938E9311977383628342
:101A5000CB0156E0969587955A95E1F78170907085
:101A600095838483CB0145E0969587954A95E1F768
:101A70008170907097838683CB0134E0969587952B
:101A80003A95E1F78170907091878087CB019595A9
:101A90008795877090709387828761707070758763
:101AA00064870E94FF078DB79EB70E960FB6F89415
:101AB0009EBF0FBE8DBF0895FF920F931F938C01A1
:101AC000F62E81E00E94EF1480E00E94F81480E07E
:101AD0000E94FD14F80181816F2D0E949B141F91BB
:101AE0000F91FF900895CF93DF93EC0160E070E0D9
:101AF0000E945C0D80E58EBD0DB407FEFDCF8EB556
:101B000083E78EBD0DB407FEFDCF8EB5CE0161E03B
:101B100070E00E945C0DDF91CF9108951F93CF93E9
:101B2000DF93EC0160E070E00E945C0D80E68EBD0A
:101B30000DB407FEFDCF8EB58FEF8EBD0DB407FE41
:101B4000FDCF1EB5CE0161E070E00E945C0D812FDB
:101B5000DF91CF911F9108951F93CF93DF93EC01F5
:101B600060E070E00E945C0D8FEF8EBD0DB407FE4B
:101B7000FDCF1EB5CE0161E070E00E945C0D812FAB
:101B8000DF91CF911F9108951F93CF93DF93EC01C5
:101B900060E070E00E945C0D81EE8EBD0DB407FE2A
:101BA000FDCF1EB5CE0161E070E00E945C0D812F7B
:101BB000DF91CF911F9108951F93CF93DF93EC0195
:101BC00060E070E00E945C0D82EE8EBD0DB407FEF9
:101BD000FDCF1EB5CE0161E070E00E945C0D812F4B
:101BE000DF91CF911F9108950F931F938C01FC01FA
:101BF000808160E00E949B14C8010E94C40DC8014E
:101C00000E94DC0D1F910F910895EF92FF920F93A8
:101C10001F93CF93DF93EC01F62EE72E9C81142FB8
:101C2000941708F4192F8E81882311F000E002C068
:101C3000092F011BCE0160E070E00E945C0D81E67F
:101C40008EBD0DB407FEFDCF8F2D9E2D9C01F90199
:101C5000FEB49FEF07C09EBD0DB407FEFDCF8EB54D
:101C6000819311501123B9F707C08EBD0DB407FE43
:101C7000FDCF9EB5015001C08FEF0023B1F7CE011B
:101C800061E070E00E945C0D8F2DDF91CF911F917C
:101C90000F91FF90EF900895DF92EF92FF920F93D4
:101CA0001F93CF93DF93EC01E62ED72EF22E9C816B
:101CB000142F941708F4192F8E81882311F000E057
:101CC00002C0092F011BCE0160E070E00E945C0D94
:101CD000FEBC0DB407FEFDCF8E2D9D2D9C01F9019C
:101CE000FEB408C080818EBD0DB407FEFDCF3196D5
:101CF0008EB511501123B1F706C01EBC0DB407FEFE
:101D0000FDCF8EB501500023C1F7CE0161E070E038
:101D10000E945C0D8F2DDF91CF911F910F91FF904D
:101D2000EF90DF9008950F931F93CF93DF93EC0113
:101D3000162F042F60E070E00E945C0D1F7110628E
:101D40001EBD0DB407FEFDCF1EB50EBD0DB407FEC2
:101D5000FDCF8EB5CE0161E070E00E945C0D812F59
:101D6000DF91CF911F910F910895662319F061E0E3
:101D70004FE302C061E040E00E94930E0895CF92CD
:101D8000DF92EF92FF920F931F938B017A0169010B
:101D900067E040E70E94930E90E09C01E5E03695F5
:101DA0002795EA95E1F72170F801208374E0969574
:101DB00087957A95E1F7282F2170F7012083969572
:101DC0008795969587958170F60180831F910F9175
:101DD000FF90EF90DF90CF900895DF92EF92FF9207
:101DE0000F931F93CF93DF938C017B010E94AC0D67
:101DF000C82FD0E0CE01A6E096958795AA95E1F789
:101E0000DD24D394D82280FF15C0E114F10431F011
:101E1000CE01959587958770F7018083C80167E0AB
:101E200040E40E94930EC5FF05C0C80167E040E290
:101E30000E94930E8D2DDF91CF911F910F91FF90F6
:101E4000EF90DF90089560E070E00E94ED0E08953D
:101E5000462F603808F04FE765E00E94930E089522
:101E6000EF92FF920F931F93CF93DF937C01162F76
:101E7000EA01022F60E070E00E945C0D1F711062A9
:101E80001EBD0DB407FEFDCF1EB508C088818EBDF6
:101E90000DB407FEFDCF21968EB501500023B1F79A
:101EA000C70161E070E00E945C0D812FDF91CF914E
:101EB0001F910F91FF90EF900895EF92FF920F9373
:101EC0001F93DF93CF93CDB7DEB728970FB6F89463
:101ED000DEBF0FBECDBF7C0109831A832B833C83F9
:101EE0004D835E836F8378878E010F5F1F4F6AE09B
:101EF000A80125E00E94300FC70160E1A80125E09C
:101F00000E94300FF7014481413208F040E2C701DE
:101F100061E10E94930E28960FB6F894DEBF0FBEC3
:101F2000CDBFCF91DF911F910F91FF90EF9008955A
:101F30001F93CF93DF93EC01162F60E070E00E94B7
:101F40005C0D1F711EBD0DB407FEFDCF8EB58FEF6A
:101F50008EBD0DB407FEFDCF1EB5CE0161E070E071
:101F60000E945C0D812FDF91CF911F91089564E055
:101F70000E94980F08950E94B70F282F30E02F700D
:101F800030704AEF50E0B901649F9001659F300DB9
:101F9000749F300D112482958F7090E00196A901F5
:101FA000489F9001499F300D589F300D1124C90161
:101FB000089560E00E94980F8C7083FD03C020E0BC
:101FC00030E007C082FD03C021E030E002C022E023
:101FD00030E0C90108950F931F93CF93DF938C01D5
:101FE000EB0160E00E94980F482F437F209729F073
:101FF000219711F4486001C04C60C80160E00E9464
:10200000930EDF91CF911F910F91089566E00E948A
:10201000980F8872803219F422E030E006C020E088
:1020200030E0883011F421E030E0C9010895FF92DA
:102030000F931F93CF93DF93EC018B0166E00E9417
:10204000980F1A82B7EDFB2EF8220230110511F419
:1020500080E206C00130110529F481E08A8388E01E
:10206000F82A01C01A82CE0166E04F2D0E94930E1D
:10207000CE0166E00E94980F8F1511F481E002C036
:102080001A8280E0DF91CF911F910F91FF90089508
:1020900066E00E94980F8670863019F423E030E0E5
:1020A0000BC0843019F422E030E006C020E030E0BC
:1020B000823011F421E030E0C90108950F931F939D
:1020C000CF93DF938C01EB0166E00E94980F482FBD
:1020D000497FC330D10571F0C230D10511F444609D
:1020E0000AC0C130D10511F4426005C0209719F033
:1020F000249709F44660C80166E00E94930EDF91C0
:10210000CF911F910F910895CF93DF93EC016DE173
:102110000E94980F482F4460CE016DE10E94930EFB
:10212000CE016DE10E94980F882369F4CE010E94D0
:10213000730DCE016DE10E94980F482F4460CE01CF
:102140006DE10E94930ECE016CE10E94980F482F22
:102150004F63CE016CE10E94930E81E08E83DF918C
:10216000CF910895BF92CF92DF92EF92FF920F939B
:102170001F93DF93CF93CDB7DEB728970FB6F894B0
:10218000DEBF0FBECDBF6C01B62EE982FA820B8393
:102190001C832D833E834F835887662389F4F60181
:1021A000E0868A8181878B8182878C8183878D817C
:1021B00084878E8185878F8186878885878707C0FA
:1021C000F6E0F61708F43DC081E0681761F4EB2DE6
:1021D000F0E0E259FF4FE491C6016E2FAE014F5F70
:1021E0005F4F25E00BC0E62FF0E0E259FF4FE4918E
:1021F000C6016E2FAE014F5F5F4F21E00E94300F8E
:102200000B2D10E0F801EC58FF4FE491C6016E2F42
:10221000F60144810E94930EC60162E00E94980F6D
:1022200008591F4FF801649121E030E002C0220FED
:10223000331F6A95E2F7482F422BC60162E00E94E5
:10224000930E28960FB6F894DEBF0FBECDBFCF9188
:10225000DF911F910F91FF90EF90DF90CF90BF9093
:1022600008950F931F938C010E94050EC80167E12A
:102270000E94980F81701F910F910895EF92FF9225
:102280000F931F93CF93DF93EC017B01042F122F49
:1022900060E00E94980F482F4C7F4260CE0160E0C2
:1022A0000E94930E86E990E00E94BA0C112311F46B
:1022B00020EA01C020EBCE01B701402F0E944C0E56
:1022C000888161E00E949B148AE090E00E94BA0C31
:1022D000888160E00E949B14DF91CF911F910F9144
:1022E000FF90EF9008950F931F938C0160E00E9480
:1022F000980F482F4260C80160E00E94930E86E963
:1023000090E00E94BA0C1F910F910895CF93DF9334
:10231000EC0160E00E94980F482F4360CE0160E01E
:102320000E94930ECE0167E040E70E94930E8885DD
:102330009985892B9A85892B9B85892B9C85892B4F
:102340009D85892B9E85892B9F85892B41F0AE0128
:10235000485F5F4FCE016AE025E00E94300FCE015A
:102360000E94DC0DCE010E94C40D888161E00E94B4
:102370009B1482E890E00E94BA0CDF91CF910895FF
:10238000CF92DF92FF920F931F93CF93DF936C0155
:10239000EB01042FF22ECB010E945307089710F097
:1023A00020E001C029E000D000D000D0EDB7FEB79A
:1023B000319687E591E0ADB7BEB712969C938E93A8
:1023C0001197D383C283822F992787FD9095958398
:1023D00084830E94FF07EDB7FEB736960FB6F894D8
:1023E000FEBF0FBEEDBFCFE4D1E01BC0102F1F5FBB
:1023F000C601602F0E94980F00D000D0EDB7FEB745
:102400003196ADB7BEB71296DC93CE931197828307
:1024100013820E94FF07FA94012F0F900F900F90E4
:102420000F90FF2019F700D08CE491E0EDB7FEB7D4
:10243000928381830E94FF070F900F90DF91CF91CD
:102440001F910F91FF90DF90CF900895CF93DF936E
:10245000EC01888161E00E945C14898161E00E9446
:102460005C140E940E15888160E00E949B14CE01CE
:1024700061E070E00E945C0D65E070E080E090E05B
:102480000E94610CCE0164E04FE50E94930ECE01E4
:1024900063E070E00E945E10CE0162E070E00E9496
:1024A0001710882311F081E08B83CE0160E070E08B
:1024B0000E941710CE0162E070E00E94EB0FCE0187
:1024C0006CE140E00E94930ECE0167E040E70E947D
:1024D000930ECE016CE40E94280FCE010E94DC0D09
:1024E000CE010E94C40DDF91CF910895EF92FF922B
:1024F0000F931F93CF93DF937C01162FEA01022FD6
:1025000060E070E00E945C0D1F711EBD0DB407FEFF
:10251000FDCF1EB59FEF07C09EBD0DB407FEFDCFDA
:102520008EB5899301500023B9F7C70161E070E0CF
:102530000E945C0D812FDF91CF911F910F91FF9031
:10254000EF9008956F927F928F929F92AF92BF9279
:10255000CF92DF92EF92FF920F931F93DF93CF936F
:1025600000D00F92CDB7DEB78C010E943E110E94C1
:102570003B0C4B015C01C8010E94BB0F3E0108945B
:10258000611C711C6C01EE24FF24C80168E0A301EA
:1025900021E00E947612807321F50E943B0C68199D
:1025A00079098A099B096C157D058E059F05C8F47C
:1025B000ECCFC8010E948E0DF80187838F2D0F90FC
:1025C0000F900F90CF91DF911F910F91FF90EF909F
:1025D000DF90CF90BF90AF909F908F907F906F9043
:1025E000089598012B5F3F4FC801BE016E5F7F4F7A
:1025F000AE014D5F5F4F0E94BF0EFA80F8018581EA
:102600008823E1F2D6CF4F925F926F927F928F92A2
:102610009F92AF92BF92CF92DF92EF92FF920F9371
:102620001F93DF93CF9300D000D00F92CDB7DEB7CA
:102630006C018B01E42EF22ECB010E945307089708
:1026400010F020E001C029E000D000D000D0EDB7AC
:10265000FEB7319684E491E0ADB7BEB712969C9375
:102660008E93119713830283822F992787FD90956C
:10267000958384830E94FF07EDB7FEB736960FB6A9
:10268000F894FEBF0FBEEDBF2E010894411C511CF3
:1026900080E4682E81E0782E06E0802E912C8C0E4E
:1026A0009D1E1BE3A12E11E0B12E2FC0C6016E2D81
:1026B000A20125E00E94761200D0ADB7BEB71296F7
:1026C0007C926E9211970E94FF0784010F900F90E9
:1026D00015C000D000D0EDB7FEB73196ADB7BEB78C
:1026E0001296BC92AE921197D8018C91828313827C
:1026F0000E94FF070F900F900F900F900150104015
:102700000C171D0731F7E394FA94FF2079F600D0F7
:1027100088E391E0EDB7FEB7928381830E94FF07C3
:102720000F900F900F900F900F900F900F90CF91F0
:10273000DF911F910F91FF90EF90DF90CF90BF90AE
:10274000AF909F908F907F906F905F904F90089583
:102750000F931F938C010E94AC0D682FC8010E943B
:10276000120DC8016BE271E04AE022E00E940313FF
:10277000C8016EE171E04CE024E00E94C011C80184
:1027800066E171E040E121E00E940313C8016BE0C3
:1027900071E041E126E00E94C011C80165E071E0EE
:1027A00041E021E00E94C011C8016BEF70E042E0FF
:1027B00021E00E94C011C80165EF70E045E021E012
:1027C0000E94C011C8016CEE70E046E021E00E945A
:1027D000C011C80165EE70E040E021E00E94C01128
:1027E000C80167ED70E04CE122E00E94C011C80111
:1027F0000E940610FC01EE0FFF1FE658FF4F2591C7
:10280000349100D000D085EC90E0EDB7FEB7928314
:102810008183348323830E94FF07F8018381E82F9B
:10282000F0E0EE0FFF1FE058FF4F2591349186EB4B
:1028300090E0EDB7FEB792838183348323830E94B7
:10284000FF070F900F900F900F90C8010E94D90FB3
:10285000FC01EE0FFF1FEC57FF4F2591349100D084
:1028600000D083EA90E0EDB7FEB792838183348392
:1028700023830E94FF070F900F900F900F90C801C5
:102880000E944810FC01EE0FFF1FE657FF4F2591F5
:10289000349100D000D082E990E0EDB7FEB792838A
:1028A0008183348323830E94FF070F900F900F9042
:1028B0000F901F910F910895CF93DF93482F50E011
:1028C000CA01835A9D4FFC013491475B5D4FFA0169
:1028D0008491882369F190E0880F991FFC01E55DE0
:1028E000FD4FA591B491FC01EB5CFD4FC591D491D6
:1028F000662351F42FB7F8948C91932F90958923E8
:102900008C93888189230BC0623061F42FB7F894CF
:102910008C91932F909589238C938881832B888326
:102920002FBF06C09FB7F8948C91832B8C939FBFC9
:10293000DF91CF910895482F50E0CA018F589D4FE5
:10294000FC012491CA01835A9D4FFC019491475B7D
:102950005D4FFA013491332309F440C0222351F131
:10296000233071F0243028F42130A1F0223011F509
:1029700014C02630B1F02730C1F02430D9F404C09F
:10298000809180008F7703C0809180008F7D80933D
:10299000800010C084B58F7702C084B58F7D84BD60
:1029A00009C08091B0008F7703C08091B0008F7D07
:1029B0008093B000E32FF0E0EE0FFF1FEB5CFD4FC4
:1029C000A591B4912FB7F894662321F48C9190953A
:1029D000892302C08C91892B8C932FBF0895882363
:1029E00019F48CB5806202C08CB58F7D8CBD0895C2
:1029F0009CB5937F982B9CBD08952CB5382F3370D0
:102A00002C7F322B3CBD2DB590E095958795959503
:102A1000879581702E7F822B8DBD08958AE061E0BD
:102A20000E949B148AE061E00E945C148CB5806176
:102A30008CBD8CB580648CBD8DE061E00E945C141F
:102A40008BE061E00E945C140895A1E21A2EAA1B9B
:102A5000BB1BFD010DC0AA1FBB1FEE1FFF1FA2174E
:102A6000B307E407F50720F0A21BB30BE40BF50B4B
:102A7000661F771F881F991F1A9469F760957095D4
:102A8000809590959B01AC01BD01CF0108952F92D7
:102A90003F924F925F926F927F928F929F92AF92EE
:102AA000BF92CF92DF92EF92FF920F931F93CF933B
:102AB000DF93CDB7DEB7CA1BDB0B0FB6F894DEBFD2
:102AC0000FBECDBF09942A88398848885F846E84F8
:102AD0007D848C849B84AA84B984C884DF80EE8042
:102AE000FD800C811B81AA81B981CE0FD11D0FB64B
:102AF000F894DEBF0FBECDBFED010895EE0FFF1FAE
:0C2B00000590F491E02D0994F894FFCFAB
:102B0C00476F742066726F6D2025642C2025733AF4
:102B1C002073656E736F722E506172616D56616CAD
:102B2C007565203D20252E32660A000A0D5246326C
:102B3C00342F6578616D706C65732F70696E67707A
:102B4C006169722F0A0D00524F4C453A2025730AC9
:102B5C000D00696E76616C69640050696E67206F58
:102B6C00757400506F6E67206261636B0020009378
:102B7C0002000052015A01630100000000240BC93D
:0A2B8C000BBA0AEB0ACB0A140B0087
:00000001FF
