:100000000C94C6010C94EE010C94EE010C94EE01DC
:100010000C94EE010C94EE010C94EE010C94B917C3
:100020000C94EE010C94EE010C94EE010C94EE0194
:100030000C94EE010C94EE010C94EE010C94EE0184
:100040000C94260E0C94EE010C94DD0B0C942B0CEE
:100050000C94EE010C94EE010C94EE010C94EE0164
:100060000C94EE010C94EE01000000002400270027
:100070002A0000000000250028002B0000000000DE
:1000800023002600290004040404040404040202DA
:100090000202020203030303030301020408102007
:1000A0004080010204081020010204081020000012
:1000B0000007000201000003040600000000000029
:1000C00000000001020304050A0B0C0D0E0F1112B3
:1000D0001314151629022F0235023D024602500262
:1000E0005902600268026F0276027E02504120507F
:1000F0006F77657209203D2025530D0A0043524356
:10010000204C656E67746809203D2025530D0A0058
:100110004D6F64656C0909203D2025530D0A00448C
:10012000617461205261746509203D2025530D0AD8
:100130000044594E50442F464541545552450043C2
:100140004F4E4649470052465F5345545550005262
:10015000465F434800454E5F525841444452004573
:100160004E5F41410052585F50575F50302D36006E
:1001700054585F414444520052585F414444525FD6
:1001800050322D350052585F414444525F50302D5B
:1001900031000D0A002530327800203078002553D8
:1001A000092563203D000D0A002030782530327883
:1001B000002553092563203D004F425345525645C3
:1001C0005F54583D253032783A20504F4C535F43AE
:1001D0004E543D2578204152435F434E543D25788F
:1001E0000D0A005354415455530909203D203078DD
:1001F000253032782052585F44523D25782054589B
:100200005F44533D2578204D41585F52543D257839
:100210002052585F505F4E4F3D25782054585F461E
:10022000554C4C3D25780D0A00314D42505300325B
:100230004D425053003235304B425053006E5246BF
:1002400032344C3031006E524632344C30312B0057
:1002500044697361626C656400382062697473007C
:10026000313620626974730050415F4D494E005031
:10027000415F4C4F570050415F484947480050414B
:100280005F4D4158006E616E00696E660000407AF5
:1002900010F35A00A0724E18090010A5D4E800000F
:1002A000E87648170000E40B54020000CA9A3B00AD
:1002B0000000E1F505000080969800000040420F24
:1002C000000000A08601000000102700000000E8E8
:1002D00003000000006400000000000A00000000AD
:1002E000000100000000002C76D888DC674F08234E
:1002F000DFC1DFAE59E1B1B796E5E3E453C63AE6B4
:1003000051997696E8E6C28426EB898C9B62ED4093
:100310007C6FFCEFBC9C9F40F2BAA56FA5F49005E2
:100320005A2AF75C936B6CF9676DC11BFCE0E40D16
:1003300047FEF520E6B500D0ED902E03009435770A
:10034000050080841E080000204E0A000000C80C32
:10035000333333330F986E12831141EF8D2114899B
:100360003BE65516CFFEE6DB18D1844B381BF77CF5
:100370001D901DA4BBE424203284725E228100C93A
:10038000F124ECA1E53D2700A608970D11241FBE1E
:10039000CFEFD8E0DEBFCDBF12E0A0E0B1E0EEEBE2
:1003A000F5E302C005900D92A43CB107D9F714E023
:1003B000A4ECB2E001C01D92AC3AB107E1F713E042
:1003C000CCE8D3E004C02297FE010E94D91AC838B5
:1003D000D107C9F70E94ED0D0C94DD1A0C940000B2
:1003E000A1E1B0E0E6EFF1E00C94A01A3C017F87B8
:1003F0006E876A01FC0117821682838181FD03C02A
:100400006FEF7FEF71C39E012F5F3F4F398B288BBA
:10041000F3012381EE85FF8523FD859123FF8191E3
:10042000FF87EE87882309F45CC3853251F4EE859B
:10043000FF8523FD859123FF8191FF87EE8785321C
:1004400029F490E0B3010E94BE07E2CF982F10E09C
:10045000882499241032B0F49B3269F09C3228F43D
:10046000903251F0933271F40BC09D3239F09033D9
:1004700049F4116028C01260146025C0186023C0C0
:10048000106121C017FD2AC0892F80538A3078F46B
:1004900016FF06C0FAE09F9E902C1124980E13C000
:1004A0003AE0839E802C1124880E10620CC09E328C
:1004B00021F416FD16C3106406C09C3611F41068B2
:1004C00002C0983659F4EE85FF8523FD959123FFF0
:1004D0009191FF87EE87992309F0BCCF892F85542E
:1004E000833020F4812F8061905E07C0892F85566C
:1004F000833008F0A1C1812F8F7E86FD02C076E097
:10050000972E6FE3F62EF822953619F4F0E4FF2AC1
:1005100007C0963619F420E8F22A02C091109A9486
:10052000F7FE0BC03BE3391520F427E05CE3B52E62
:100530000EC0B92CB39427E00AC047E0491528F44F
:1005400027E0BB2447E0942E02C0292DBB24C6011E
:1005500004969D878C87F6016081718182819381E9
:10056000AE014F5F5F4F0B2D0E947B066C0109812E
:10057000202E332400FF04C003FD02C01DE209C089
:10058000F1FE02C01BE205C0F2FC02C010E001C097
:1005900010E2C1018C709070892BB9F1112311F414
:1005A00083E001C084E0881510F088240AC0881A0E
:1005B000F3FC07C080E290E0B3010E94BE078A947A
:1005C000C9F7112329F0812F90E0B3010E94BE07E3
:1005D00023FE03C005E812E00EC009E812E00BC0DC
:1005E000E114F10409F0805290E0B3010E94BE07CB
:1005F0000F5F1F4F05C0EF2CFF24F0E1EF22FF2417
:10060000F8018491882361F714C1F7FE12C0BC0C75
:1006100024FE04C08A81813309F4BA941B141CF0AF
:10062000BB24B3942DC0F8E0FB1550F538E0B32E91
:1006300027C0F6FC25C0892D90E08C159D054CF057
:100640002CEFC2162FEFD20624F030E8F32A01C0B7
:100650009A94992049F0E2E0F0E0EC0FFD1FE90DDB
:10066000F11D80818033A1F3F7FE0AC0B92CB39449
:10067000892D90E0C816D90614F0992401C09C1861
:10068000F7FC03C025E030E009C01C141D041CF079
:1006900021E030E003C096012F5F3F4F112311F09E
:1006A0002F5F3F4F992029F0892D90E00196280F68
:1006B000391F882D90E02817390714F0882401C0CD
:1006C000821A4F2C5524C20189709070892B39F001
:1006D00008C080E290E0B3010E94BE078A9488209F
:1006E000C1F7112329F0812F90E0B3010E94BE07CA
:1006F00043FE07C008C080E390E0B3010E94BE073C
:100700008A948820C1F7F7FE46C08601D7FE02C052
:1007100000E010E076010894E11CF11CE01AF10AF7
:1007200041E050E04C0F5D1FE40EF51E26014B1812
:100730005108892D90E0AA24BB24A81AB90A5FEFBA
:100740000F3F150729F48EE290E0B3010E94BE0727
:10075000C016D10634F0401651061CF4F701808112
:1007600001C080E3015010400894E11CF11C0A15FF
:100770001B052CF090E0B3010E94BE07E0CF0C15E2
:100780001D0539F49A81963318F4953311F424FE3B
:1007900081E390E04BC08A81813309F00F7E90E0C5
:1007A000B3010E94BE079920A1F08EE290E0B30150
:1007B0000E94BE0712E0E1E0F0E0EC0FFD1FE10F48
:1007C000F11D1F5F808190E0B3010E94BE079A94E3
:1007D00091F744FC03C085E690E002C085E490E018
:1007E000B3010E94BE07D7FC05C0C114D10441F477
:1007F00004FF06C0D094C194D108D3948DE201C007
:100800008BE290E0B3010E94BE0780E305C08F5FDA
:1008100026EF3FEFC20ED31E3AE0C316D104BCF759
:1008200090E0B3010E94BE07C601C096B3010E94CA
:10083000BE07CC84DD8452C1933631F0933799F0F2
:10084000933509F059C023C0F601808189835E0188
:100850000894A11CB11C22E030E0C20ED31E21E09E
:10086000E22EF12C12C0F601A080B18016FD03C06B
:100870006FEF7FEF02C0692D70E022E030E0C20E22
:10088000D31EC5010E9467077C011F7713C0F601C4
:10089000A080B18016FD03C06FEF7FEF02C0692D0D
:1008A00070E022E030E0C20ED31EC5010E945C075A
:1008B0007C01106813FF07C01BC080E290E0B30109
:1008C0000E94BE078A94882D90E0E816F906A8F3E6
:1008D0000FC0F50117FD859117FF81915F0190E031
:1008E000B3010E94BE0781108A940894E108F108C0
:1008F000E114F10471F7F2C0943611F0993689F5DC
:1009000017FF08C0F601208131814281538184E0C4
:1009100090E00AC0F601808191819C01442737FD57
:100920004095542F82E090E0C80ED91E9FE6F92E24
:10093000F12257FF09C050954095309521953F4FC2
:100940004F4F5F4F90E8F92ACA01B901AE014F5FDE
:100950005F4F2AE030E00E942508E82EE889EE1A71
:1009600041C0953721F41F7E2AE030E01CC0197F7A
:100970009F3661F0903720F4983509F0B2C00FC06F
:10098000903739F0983709F0ACC004C028E030E067
:100990000AC0106114FD146020E130E004C014FDB1
:1009A000166020E132E017FF08C0F6016081718116
:1009B0008281938144E050E008C0F60180819181FA
:1009C000BC0180E090E042E050E0C40ED51EAE01D4
:1009D0004F5F5F4F0E942508E82E5889E51A8FE780
:1009E000F82EF122F6FE0BC08EEFF822E91438F44F
:1009F000F4FE07C0F2FC05C09FEEF92202C01E2DD6
:100A000001C0192DF4FE0DC0FE01EE0DF11D808117
:100A1000803319F4E9EEFE2208C01F5FF2FE05C024
:100A200003C08F2D867809F01F5F0F2DF3FC14C0D3
:100A3000F0FE0FC0181510F09E2C0BC09E2C980CC9
:100A4000911A182D06C080E290E0B3010E94BE0703
:100A50001F5F1815C0F304C0181510F4811A01C0E7
:100A6000882404FF0FC080E390E0B3010E94BE071A
:100A700002FF1DC001FD03C088E790E00EC088E5BD
:100A800090E00BC0802F867891F001FF02C08BE2CE
:100A900001C080E2F7FC8DE290E0B3010E94BE0746
:100AA00006C080E390E0B3010E94BE079A94E91467
:100AB000C0F3EA94E1E0F0E0EC0FFD1FEE0DF11D54
:100AC000808190E0B3010E94BE07EE2091F706C03E
:100AD00080E290E0B3010E94BE078A948820C1F7AB
:100AE00097CCF30166817781CB016196E2E10C94AA
:100AF000BC1ACF93DF93BC018230910510F462E001
:100B000070E0A091A404B091A504ED01E0E0F0E054
:100B100040E050E021C0888199818617970769F4E9
:100B20008A819B81309719F09383828304C09093CC
:100B3000A5048093A404FE0134C06817790738F433
:100B40004115510519F08417950708F4AC01FE0111
:100B50008A819B819C01E9012097E9F641155105A5
:100B6000A9F1CA01861B970B049708F4BA01E0E0CB
:100B7000F0E02AC08D919C91119784179507F9F4A4
:100B80006417750781F412968D919C911397309795
:100B900019F09383828304C09093A5048093A404E6
:100BA000FD0132964CC0CA01861B970BFD01E80F70
:100BB000F91F6193719302978D939C9340C0FD013F
:100BC000828193819C01D9011097A1F68091A204A2
:100BD0009091A304892B41F480913E0290913F02B1
:100BE0009093A3048093A20440914002509141024B
:100BF0004115510541F44DB75EB780913C0290918B
:100C00003D02481B590B2091A2043091A304CA0154
:100C1000821B930B8617970780F0AB014E5F5F4FE7
:100C20008417950750F0420F531F5093A30440932D
:100C3000A204F9016193719302C0E0E0F0E0CF01FA
:100C4000DF91CF910895CF93DF93009709F450C0BF
:100C5000EC0122971B821A82A091A404B091A504F2
:100C6000109709F140E050E0AC17BD0708F1BB83D5
:100C7000AA83FE0121913191E20FF31FAE17BF0746
:100C800079F48D919C911197280F391F2E5F3F4F5A
:100C90003983288312968D919C9113979B838A8325
:100CA0004115510571F4D093A504C093A40420C04C
:100CB00012968D919C911397AD01009711F0DC0174
:100CC000D3CFFA01D383C28321913191E20FF31F75
:100CD000CE17DF0769F488819981280F391F2E5FAD
:100CE0003F4FFA01318320838A819B8193838283E2
:100CF000DF91CF910895283008F027E03327DA01FB
:100D0000990F311D87FD916000966105710539F4D9
:100D100032602E5F3D9330E32A95E1F708959F3FBF
:100D200030F080387105610509F03C5F3C5F3D9310
:100D3000913008F08068911DDF93CF931F930F933C
:100D4000FF92EF92192F987F9695E92F9695969599
:100D5000E90FFF27E951FD4F99273327EE24FF24A0
:100D6000A701E70105900894079428F4360FE71EC1
:100D7000F81E491F511D660F771F881F991F069483
:100D8000A1F70590079428F4E70EF81E491F561F97
:100D9000C11D770F881F991F661F0694A1F7059044
:100DA000079428F4F80E491F561FC71FD11D880F3E
:100DB000991F661F771F0694A1F70590079420F4EA
:100DC000490F561FC71FD81F990F661F771F881F0F
:100DD0000694A9F784911095177041F0D695C795A0
:100DE00057954795F794E7941A95C1F7EDE8F2E027
:100DF00068941590159135916591959105907FE2D4
:100E00007395E118F10A430B560BC90BD009C0F7D3
:100E1000E10CF11E431F561FC91FD01D7EF4703315
:100E200011F48A95E6CFE894015030F0080F0AF4E7
:100E30000027021708F4202F2395022F7A3328F079
:100E400079E37D932A95E9F710C07D932A9589F679
:100E5000069497956795379517951794E118F10AB9
:100E6000430B560BC90BD00998F023957E917395CF
:100E70007A3308F070E37C932013B8F77E917061A9
:100E80007D9330F0839571E37D9370E32A95E1F7CC
:100E90001124EF90FF900F911F91CF91DF9199272F
:100EA00087FD90950895FC0105900020E9F7809555
:100EB00090958E0F9F1F0895FC0105906150704022
:100EC0000110D8F7809590958E0F9F1F0895FC0113
:100ED0006150704001900110D8F7809590958E0F69
:100EE0009F1F08950F931F93CF93DF938C01EB0106
:100EF000009731F46115710519F420E030E038C035
:100F000081E090E06EE070E00E948308FC019C01AB
:100F1000009771F180E88383209771F0D387C287AF
:100F200081E883838091A6049091A704892B21F402
:100F3000F093A704E093A60401151105C9F01187E9
:100F400000878381826083838091A8049091A904A3
:100F5000892B71F4F093A904E093A8048091AA046A
:100F60009091AB04892B21F4F093AB04E093AA0495
:100F7000C901DF91CF911F910F9108950F931F9396
:100F8000CF93DF938C01EB018B8181FF1BC082FF2C
:100F90000DC02E813F818C819D812817390764F413
:100FA000E881F9810193F983E88306C0E885F98532
:100FB000802F0995892B31F48E819F8101969F8323
:100FC0008E8302C00FEF1FEFC801DF91CF911F91F9
:100FD0000F910895A0E0B0E0E0EFF7E00C94B01AB4
:100FE000FE013596619171918091A8049091A904B8
:100FF000AF010E94F0012096E2E00C94CC1AA0E030
:10100000B0E0E5E0F8E00C94B01AFE01359661918D
:101010007191A091A804B091A90413968C91139793
:10102000886013968C938091A8049091A904AF01D5
:101030000E94F001E091A804F091A9042381277F88
:1010400023832096E2E00C94CC1AFA01AA272830D8
:1010500051F1203181F1E8946F936E7F6E5F7F4F85
:101060008F4F9F4FAF4FB1E03ED0B4E03CD0670F01
:10107000781F891F9A1FA11D680F791F8A1F911D54
:10108000A11D6A0F711D811D911DA11D20D009F4A4
:1010900068943F912AE0269F11243019305D3193E6
:1010A000DEF6CF010895462F4770405D4193B3E0CF
:1010B0000FD0C9F7F6CF462F4F70405D4A3318F076
:1010C000495D31FD4052419302D0A9F7EACFB4E027
:1010D000A6959795879577956795BA95C9F70097DF
:1010E0006105710508959B01AC010A2E0694579580
:1010F000479537952795BA95C9F7620F731F841FD7
:10110000951FA01D08950F931F93CF93DF93689FA2
:101110008001699F100D789F100D1124C8010E9455
:101120007905EC01009729F060E070E0A8010E94C9
:101130009F08CE01DF91CF911F910F910895DC019F
:1011400001C06D9341505040E0F708956091420214
:101150007091430284EC92E00E94B41785EC92E017
:1011600068E047E00E9448100895EF92FF920F93C5
:101170001F9320911103309112034091130350915A
:10118000140380911D0390911E03A0911F03B09141
:10119000200379018A01E81AF90A0A0B1B0BD8010E
:1011A000C701815D9740A040B040B0F020931D037F
:1011B00030931E0340931F035093200389E061E0A6
:1011C0000E94A10F64E670E080E090E00E94A20E11
:1011D00089E060E00E94A10F1F910F91FF90EF90B6
:1011E00008956F927F928F929F92AF92BF92CF920B
:1011F000DF92EF92FF920F931F93CF93DF933C0107
:1012000085EC92E00E943D1185E893E09093D8022E
:101210008093D70286E893E09093DA028093D90214
:101220001092DC021092DB027092DE026092DD020C
:101230008AE190E0689E9001699E300D789E300DA5
:101240001124F901E65BFD4F408151816281738178
:101250004093DF025093E0026093E1027093E20258
:1012600084818093E302A4EEB2E0F901E15BFD4FDB
:1012700080E101900D928150E1F72DB73EB72A50E1
:1012800030400FB6F8943EBF0FBE2DBFEDB7FEB78E
:10129000319680E091E0ADB7BEB712969C938E93E5
:1012A000119785E893E093838283C4EED2E0D583DF
:1012B000C48346835783608771870E94EA07EDB72E
:1012C000FEB73A960FB6F894FEBF0FBEEDBF85ECA1
:1012D00092E0BE016D5070404DE120E00E94FA1591
:1012E000882379F000D000D08BE291E0ADB7BEB793
:1012F00012969C938E9311971496DC93CE9313972A
:101300000AC000D000D08BE391E0EDB7FEB7928326
:101310008183D483C3830E94EA070F900F900F90BC
:101320000F9085EC92E00E94DE140E946E0E4B013D
:101330005C01CC2485EC92E00E946C128823F1F4CD
:10134000CC20F1F40E946E0E7B018C0185EC92E0C2
:101350000E940413E818F9080A091B0968EE73E0F3
:101360000E946A1A6F5F7F4F80E090E06E157F05E4
:1013700080079107F8F6CC24C394DCCFCC20F9F099
:1013800085EC92E00E94041300D000D020E531E00B
:10139000ADB7BEB712963C932E93119768EE73E0EB
:1013A0000E946A1A6F5F7F4FEDB7FEB77483638345
:1013B0000E94EA070F900F900F900F9049C085ECA4
:1013C00092E064EF72E04DE10E947A14C090F40262
:1013D000D090F502E090FC02F090FD020091FE0238
:1013E0001091FF020E946E0E2DB73EB72251304081
:1013F0000FB6F8943EBF0FBE2DBFEDB7FEB73196C6
:1014000021E931E0ADB7BEB712963C932E93119708
:10141000D382C28221E033E035832483E682F782DF
:101420000087118782869386A486B5866819790914
:101430008A099B0966877787808B918B0E94EA07D0
:10144000EDB7FEB772960FB6F894FEBF0FBEEDBFB4
:101450008AE190E0689EF001699EF00D789EF00DA3
:101460001124E65BFD4F81E0858BDF91CF911F91C9
:101470000F91FF90EF90DF90CF90BF90AF909F9033
:101480008F907F906F9008958F929F92AF92BF92AE
:10149000CF92DF92EF92FF920F931F93CF93DF9340
:1014A00089E7882E82E0982E90E0AA24BB2465016B
:1014B000C1E0D0E0F4018081882319F08601750134
:1014C00016C0992321F485EC92E00E94BC14CE0151
:1014D0000E94F108F401E180F28003811481AE14CE
:1014E000BF04C006D10610F08601750191E0219677
:1014F0002AE130E0820E931EC430D10519F0570165
:101500006801D8CF992321F085EC92E00E94CF1496
:10151000E114F1040105110521F0C801B7010E9491
:10152000A20EDF91CF911F910F91FF90EF90DF906E
:10153000CF90BF90AF909F908F90089580911103AE
:1015400090911203A0911303B091140320911503FD
:10155000309116034091170350911803821B930B8F
:10156000A40BB50B89589341A040B040E8F181E14C
:101570000E94400FAA2797FDA095BA2FBC01CD016C
:101580000E947B1923E333E343E550E40E94071AEA
:1015900020E030E040E85AE30E94071A20E030E003
:1015A00040E05FE30E94AC182AE037ED43E25CE3E1
:1015B0000E94111960936402709365028093660221
:1015C0009093670210927902809111039091120317
:1015D000A0911303B0911403809315039093160305
:1015E000A0931703B09318038091110390911203F5
:1015F000A0911303B09114032091190330911A03A1
:1016000040911B0350911C03821B930BA40BB50B41
:10161000815A9648A140B04028F180E10E94400FD5
:10162000AA2797FDA095BA2FBC01CD010E947B1976
:10163000609398027093990280939A0290939B0210
:101640001092AD028091110390911203A0911303A7
:10165000B09114038093190390931A03A0931B0372
:10166000B0931C0308950E946E0E60931103709353
:10167000120380931303909314030E94B5080E94F1
:101680009E0A0E94440A089581E160E00E94620F70
:1016900080E160E00E94620F84EC92E00E945B189F
:1016A00008958DEC9BE060E070E00E947207089561
:1016B000CF92DF92EF92FF920F931F9381E090E021
:1016C0009093D6028093D50289EA93E040E855E2F0
:1016D00060E070E00E94660C0E94510B00D08AEF1F
:1016E00091E0EDB7FEB7928381830E94EA0700D0B4
:1016F00086E192E0EDB7FEB792838183E091D50257
:10170000F091D602EE0FFF1FEC5BFD4F80819181BF
:10171000EDB7FEB7948383830E94EA070F900F9082
:101720000F900F9045ECC42E42E0D42EC6010E94CB
:101730007E15C60161E070E00E94A713C6016CE44B
:101740000E947112C60101EE10EF20EF30EF40EF62
:1017500050E060E070E00E94A612C60161E032ED48
:10176000E32E20EFF22E00EF20EF30E040E050E0DB
:101770000E94FB13C6010E94CD13C60161E00E94C6
:10178000FE11C6010E9400170E94440B1F910F9189
:10179000FF90EF90DF90CF9008950F931F93082F45
:1017A000112707FD109589EA93E0602F0E94570DDD
:1017B000C8011F910F91089508951F920F920FB6BF
:1017C0000F9211242F933F934F938F939F93EF93F7
:1017D000FF938091C00082FD1DC04091C600209102
:1017E0006103309162032F5F3F4F2F733070809100
:1017F0006303909164032817390771F0E091610346
:10180000F0916203EF5DFC4F4083309362032093BD
:10181000610302C08091C600FF91EF919F918F916B
:101820004F913F912F910F900FBE0F901F901895E1
:10183000E091B503F091B603E05CFF4F8191919187
:1018400020813181821B930B8F739070892B11F053
:101850000E94DC0B08951F920F920FB60F92112475
:101860002F933F938F939F93EF93FF932091A50323
:101870003091A6038091A7039091A80328173907F8
:1018800031F48091C1008F7D8093C10014C0E0913C
:10189000A703F091A803EB59FC4F20818091A70387
:1018A0009091A80301968F7390709093A8038093F2
:1018B000A7032093C600FF91EF919F918F913F91D5
:1018C0002F910F900FBE0F901F901895AF92BF925F
:1018D000DF92EF92FF920F931F93CF93DF93EC0170
:1018E0007A018B01DD24403081EE580780E06807E3
:1018F00080E0780711F0DD24D39491E0A92EB12C7B
:10190000EC89FD89DD2069F0C50108A002C0880FBF
:10191000991F0A94E2F7808360E079E08DE390E01C
:1019200005C0108260E874E88EE190E0A80197019C
:101930000E947E1A215030404040504056954795B5
:101940003795279580E12030380720F0DD2011F011
:10195000DD24D6CFE889F9893083EA89FB892083A1
:1019600019A2EE89FF89408121E030E0C9010C8C89
:1019700002C0880F991F0A94E2F7482B4083EE8932
:10198000FF894081C9010D8C02C0880F991F0A94FC
:10199000E2F7482B4083EE89FF894081C9010E8C14
:1019A00002C0880F991F0A94E2F7482B4083EE8902
:1019B000FF8980810F8C02C0220F331F0A94E2F747
:1019C000209528232083DF91CF911F910F91FF90C5
:1019D000EF90DF90BF90AF900895DC011C96ED91E1
:1019E000FC911D97E05CFF4F2191319180819181A5
:1019F000281B390B2F733070C9010895DC011C9628
:101A0000ED91FC911D97E05CFF4F20813181E05406
:101A1000F040DF01AE5BBF4F8D919C91119728176D
:101A2000390719F42FEF3FEF07C08D919C91E80F14
:101A3000F91F8081282F30E0C9010895DC011C9630
:101A4000ED91FC911D97E05CFF4F20813181E054C6
:101A5000F040DF01AE5BBF4F8D919C91119728172D
:101A6000390719F42FEF3FEF10C08D919C9111971A
:101A7000E80FF91F20818D919C91119701968F732A
:101A8000907011969C938E9330E0C9010895DC010B
:101A900091968C919197882339F05496ED91FC9111
:101AA0005597808186FFF9CF91961C920895CF9328
:101AB000DF93EC01EE85FF85E05CFF4F20813181F3
:101AC000E054F0402F5F3F4F2F733070DF01AE5B6B
:101AD000BF4F8D919C91119728173907D1F3E05C86
:101AE000FF4F80819181E054F040E80FF91F60833F
:101AF000EE85FF85E05CFF4F31832083EE89FF890F
:101B0000208181E090E00F8C02C0880F991F0A9419
:101B1000E2F7282B208381E089A3EC89FD8980816D
:101B20008064808381E090E0DF91CF9108951092EE
:101B3000AC031092AB0388EE93E0A0E0B0E080939A
:101B4000AD039093AE03A093AF03B093B00387EBC4
:101B500092E09093AA038093A90381E293E090938B
:101B6000B6038093B50385E693E09093B803809322
:101B7000B70385EC90E09093BA038093B90384ECAB
:101B800090E09093BC038093BB0380EC90E0909333
:101B9000BE038093BD0381EC90E09093C0038093DB
:101BA000BF0382EC90E09093C2038093C10386EC64
:101BB00090E09093C4038093C30384E08093C503B3
:101BC00083E08093C60387E08093C70385E080931A
:101BD000C80381E08093C9030895CF93DF930E94E7
:101BE000050F0E94580BC8E1DCE00E94330B2097E0
:101BF000E1F30E94180CF9CFCF92DF92EF92FF929F
:101C00000F931F93CF93DF937C016B018A01C0E098
:101C1000D0E00FC0D6016D916D01D701ED91FC911F
:101C20000190F081E02DC7010995C80FD91F01501F
:101C300010400115110571F7CE01DF91CF911F9171
:101C40000F91FF90EF90DF90CF9008951F920F9229
:101C50000FB60F9211242F933F938F939F93AF93BF
:101C6000BF938091CF039091D003A091D103B09105
:101C7000D2033091D3030196A11DB11D232F2D5FF7
:101C80002D3720F02D570196A11DB11D2093D303B0
:101C90008093CF039093D003A093D103B093D2034A
:101CA0008091CB039091CC03A091CD03B091CE0352
:101CB0000196A11DB11D8093CB039093CC03A093FB
:101CC000CD03B093CE03BF91AF919F918F913F9180
:101CD0002F910F900FBE0F901F9018958FB7F8940B
:101CE0002091CF033091D0034091D1035091D20382
:101CF0008FBFB901CA0108959FB7F8942091CB0313
:101D00003091CC034091CD035091CE0386B5A89B72
:101D100006C08F3F21F02F5F3F4F4F4F5F4F9FBF58
:101D2000542F432F322F2227280F311D411D511DC3
:101D300082E0220F331F441F551F8A95D1F7B90146
:101D4000CA0108959B01AC017FB7F8948091CB0341
:101D50009091CC03A091CD03B091CE0366B5A89B22
:101D600005C06F3F19F00196A11DB11D7FBFBA2FAD
:101D7000A92F982F8827860F911DA11DB11D62E004
:101D8000880F991FAA1FBB1F6A95D1F7BC012DC0F0
:101D9000FFB7F8948091CB039091CC03A091CD0331
:101DA000B091CE03E6B5A89B05C0EF3F19F00196B0
:101DB000A11DB11DFFBFBA2FA92F982F88278E0F05
:101DC000911DA11DB11DE2E0880F991FAA1FBB1F25
:101DD000EA95D1F7861B970B885E9340C8F2215095
:101DE00030404040504068517C4F2115310541053D
:101DF000510571F60895019739F0880F991F880FE2
:101E0000991F02970197F1F70895789484B582603D
:101E100084BD84B5816084BD85B5826085BD85B58E
:101E2000816085BDEEE6F0E0808181608083E1E83D
:101E3000F0E0108280818260808380818160808375
:101E4000E0E8F0E0808181608083E1EBF0E0808178
:101E500084608083E0EBF0E0808181608083EAE74A
:101E6000F0E08081846080838081826080838081D3
:101E7000816080838081806880831092C100089592
:101E8000982F8E3008F09E5097708091B202829504
:101E9000880F880F807C892B80937C0080917A004A
:101EA000806480937A0080917A0086FDFCCF209137
:101EB000780040917900942F80E030E0282B392B76
:101EC000C9010895CF93DF93482F50E0CA01865689
:101ED0009F4FFC0134914A575F4FFA018491882348
:101EE00069F190E0880F991FFC01E859FF4FA59117
:101EF000B491FC01EE58FF4FC591D491662351F483
:101F00002FB7F8948C91932F909589238C93888187
:101F100089230BC0623061F42FB7F8948C91932F12
:101F2000909589238C938881832B88832FBF06C04B
:101F30009FB7F8948C91832B8C939FBFDF91CF91A7
:101F40000895482F50E0CA0182559F4FFC0124910B
:101F5000CA0186569F4FFC0194914A575F4FFA0180
:101F60003491332309F440C0222351F1233071F01E
:101F7000243028F42130A1F0223011F514C026308D
:101F8000B1F02730C1F02430D9F404C08091800032
:101F90008F7703C0809180008F7D8093800010C078
:101FA00084B58F7702C084B58F7D84BD09C08091D0
:101FB000B0008F7703C08091B0008F7D8093B00018
:101FC000E32FF0E0EE0FFF1FEE58FF4FA591B49105
:101FD0002FB7F894662321F48C919095892302C041
:101FE0008C91892B8C932FBF0895682F70E0CB01C3
:101FF00082559F4FFC012491CB0186569F4FFC01D7
:1020000044916A577F4FFB019491992319F420E082
:1020100030E03CC0222351F1233071F0243028F409
:102020002130A1F0223011F514C02630B1F0273054
:10203000C1F02430D9F404C0809180008F7703C0B0
:10204000809180008F7D8093800010C084B58F7751
:1020500002C084B58F7D84BD09C08091B0008F77A8
:1020600003C08091B0008F7D8093B000892F90E0F5
:10207000880F991F84589F4FFC01A591B4918C91B2
:1020800020E030E0842311F021E030E0C901089520
:10209000FC016083418381E08283138280E2848338
:1020A000158216821086118612861386148615866E
:1020B00016861786089570E08DB79EB70E970FB6F7
:1020C000F8949EBF0FBE8DBFEDB7FEB7319683EE7D
:1020D00091E0ADB7BEB712969C938E931197738320
:1020E0006283CB0156E0969587955A95E1F781700A
:1020F000907095838483CB0145E0969587954A95AA
:10210000E1F78170907097838683CB0134E09695D8
:1021100087953A95E1F78170907091878087CB0120
:10212000959587958770907093878287617070709E
:10213000758764870E94FF078DB79EB70E960FB60E
:10214000F8949EBF0FBE8DBF0895FF920F931F930B
:102150008C01F62E81E00E94761880E00E947F18A4
:1021600080E00E948418F80181816F2D0E94A10FE8
:102170001F910F91FF900895CF93DF93EC0160E0E2
:1021800070E00E94A51080E58EBD0DB407FEFDCF66
:102190008EB583E78EBD0DB407FEFDCF8EB5CE01A3
:1021A00061E070E00E94A510DF91CF9108951F9328
:1021B000CF93DF93EC0160E070E00E94A51080E611
:1021C0008EBD0DB407FEFDCF8EB58FEF8EBD0DB465
:1021D00007FEFDCF1EB5CE0161E070E00E94A510A4
:1021E000812FDF91CF911F9108951F93CF93DF939C
:1021F000EC0160E070E00E94A5108FEF8EBD0DB481
:1022000007FEFDCF1EB5CE0161E070E00E94A51073
:10221000812FDF91CF911F9108951F93CF93DF936B
:10222000EC0160E070E00E94A51081EE8EBD0DB45F
:1022300007FEFDCF1EB5CE0161E070E00E94A51043
:10224000812FDF91CF911F9108951F93CF93DF933B
:10225000EC0160E070E00E94A51082EE8EBD0DB42E
:1022600007FEFDCF1EB5CE0161E070E00E94A51013
:10227000812FDF91CF911F9108950F931F938C01B0
:10228000FC01808160E00E94A10FC8010E940D1135
:10229000C8010E9425111F910F910895EF92FF929E
:1022A0000F931F93CF93DF93EC01F62EE72E9C81C3
:1022B000142F941708F4192F8E81882311F000E051
:1022C00002C0092F011BCE0160E070E00E94A51042
:1022D00081E68EBD0DB407FEFDCF8F2D9E2D9C0196
:1022E000F901FEB49FEF07C09EBD0DB407FEFDCF00
:1022F0008EB5819311501123B9F707C08EBD0DB46F
:1023000007FEFDCF9EB5015001C08FEF0023B1F74E
:10231000CE0161E070E00E94A5108F2DDF91CF917A
:102320001F910F91FF90EF900895DF92EF92FF922F
:102330000F931F93CF93DF93EC01E62ED72EF22E4F
:102340009C81142F941708F4192F8E81882311F083
:1023500000E002C0092F011BCE0160E070E00E9486
:10236000A510FEBC0DB407FEFDCF8E2D9D2D9C014A
:10237000F901FEB408C080818EBD0DB407FEFDCF0B
:1023800031968EB511501123B1F706C01EBC0DB4A5
:1023900007FEFDCF8EB501500023C1F7CE0161E0ED
:1023A00070E00E94A5108F2DDF91CF911F910F91AA
:1023B000FF90EF90DF9008950F931F93CF93DF93DB
:1023C000EC01162F042F60E070E00E94A5101F7131
:1023D00010621EBD0DB407FEFDCF1EB50EBD0DB4BF
:1023E00007FEFDCF8EB5CE0161E070E00E94A51022
:1023F000812FDF91CF911F910F910895662319F0DE
:1024000061E04FE302C061E040E00E94DC1108950A
:10241000CF92DF92EF92FF920F931F938B017A017D
:10242000690167E040E70E94DC1190E09C01E5E073
:1024300036952795EA95E1F72170F801208374E03D
:10244000969587957A95E1F7282F2170F7012083DB
:1024500096958795969587958170F60180831F9153
:102460000F91FF90EF90DF90CF900895DF92EF9261
:10247000FF920F931F93CF93DF938C017B010E94F8
:10248000F510C82FD0E0CE01A6E096958795AA95C5
:10249000E1F7DD24D394D82280FF15C0E114F104C4
:1024A00031F0CE01959587958770F7018083C8013B
:1024B00067E040E40E94DC11C5FF05C0C80167E089
:1024C00040E20E94DC118D2DDF91CF911F910F9181
:1024D000FF90EF90DF90089560E070E00E94361268
:1024E0000895462F603808F04FE765E00E94DC1140
:1024F0000895EF92FF920F931F93CF93DF937C0188
:10250000162FEA01022F60E070E00E94A5101F71F3
:1025100010621EBD0DB407FEFDCF1EB508C0888138
:102520008EBD0DB407FEFDCF21968EB50150002360
:10253000B1F7C70161E070E00E94A510812FDF9123
:10254000CF911F910F91FF90EF900895EF92FF921E
:102550000F931F93DF93CF93CDB7DEB728970FB6B6
:10256000F894DEBF0FBECDBF7C0109831A832B8395
:102570003C834D835E836F8378878E010F5F1F4F8F
:102580006AE0A80125E00E947912C70160E1A80174
:1025900025E00E947912F7014481413208F040E2BF
:1025A000C70161E10E94DC1128960FB6F894DEBFE6
:1025B0000FBECDBFCF91DF911F910F91FF90EF9094
:1025C00008951F93CF93DF93EC01162F60E070E026
:1025D0000E94A5101F711EBD0DB407FEFDCF8EB564
:1025E0008FEF8EBD0DB407FEFDCF1EB5CE0161E0AD
:1025F00070E00E94A510812FDF91CF911F91089567
:1026000064E00E94E11208950E940013282F30E038
:102610002F7030704AEF50E0B901649F9001659FC0
:10262000300D749F300D112482958F7090E00196CB
:10263000A901489F9001499F300D589F300D1124EA
:10264000C901089560E00E94E1128C7083FD03C00F
:1026500020E030E007C082FD03C021E030E002C08E
:1026600022E030E0C90108950F931F93CF93DF93C9
:102670008C01EB0160E00E94E112482F437F20971C
:1026800029F0219711F4486001C04C60C80160E056
:102690000E94DC11DF91CF911F910F91089566E0A8
:1026A0000E94E1128872803219F422E030E006C004
:1026B00020E030E0883011F421E030E0C9010895D5
:1026C000FF920F931F93CF93DF93EC018B0166E092
:1026D0000E94E1121A82B7EDFB2EF822023011059A
:1026E00011F480E206C00130110529F481E08A83EB
:1026F00088E0F82A01C01A82CE0166E04F2D0E94C0
:10270000DC11CE0166E00E94E1128F1511F481E028
:1027100002C01A8280E0DF91CF911F910F91FF904C
:10272000089566E00E94E1128670863019F423E075
:1027300030E00BC0843019F422E030E006C020E025
:1027400030E0823011F421E030E0C90108950F93A8
:102750001F93CF93DF938C01EB0166E00E94E1129F
:10276000482F497FC330D10571F0C230D10511F433
:1027700044600AC0C130D10511F4426005C0209701
:1027800019F0249709F44660C80166E00E94DC1144
:10279000DF91CF911F910F910895CF93DF93EC01BB
:1027A0006DE10E94E112482F4460CE016DE10E946C
:1027B000DC11CE016DE10E94E112882369F4CE01A3
:1027C0000E94BC10CE016DE10E94E112482F4460CE
:1027D000CE016DE10E94DC11CE016CE10E94E1129C
:1027E000482F4F63CE016CE10E94DC1181E08E83A3
:1027F000DF91CF910895BF92CF92DF92EF92FF9237
:102800000F931F93DF93CF93CDB7DEB728970FB603
:10281000F894DEBF0FBECDBF6C01B62EE982FA82FE
:102820000B831C832D833E834F835887662389F453
:10283000F601E0868A8181878B8182878C818387FC
:102840008D8184878E8185878F818687888587871C
:1028500007C0F6E0F61708F43DC081E0681761F4A0
:10286000EB2DF0E0E853FF4FE491C6016E2FAE016F
:102870004F5F5F4F25E00BC0E62FF0E0E853FF4FBE
:10288000E491C6016E2FAE014F5F5F4F21E00E94C1
:1028900079120B2D10E0F801E253FF4FE491C601CD
:1028A0006E2FF60144810E94DC11C60162E00E9495
:1028B000E1120E531F4FF801649121E030E002C095
:1028C000220F331F6A95E2F7482F422BC60162E0C0
:1028D0000E94DC1128960FB6F894DEBF0FBECDBF64
:1028E000CF91DF911F910F91FF90EF90DF90CF90EC
:1028F000BF9008950F931F938C010E944E11C80141
:1029000067E10E94E11281701F910F910895EF928B
:10291000FF920F931F93CF93DF93EC017B01042F62
:10292000122F60E00E94E112482F4C7F4260CE01DE
:1029300060E00E94DC1186E990E00E94FB0E11230A
:1029400011F420EA01C020EBCE01B701402F0E9414
:102950009511888161E00E94A10F8AE090E00E94B9
:10296000FB0E888160E00E94A10FDF91CF911F9143
:102970000F91FF90EF9008950F931F938C0160E0EB
:102980000E94E112482F4260C80160E00E94DC1101
:1029900086E990E00E94FB0E1F910F9108950F931E
:1029A0001F938C0160E00E94E112482F4D7FC80107
:1029B00060E00E94DC111F910F910895CF93DF9387
:1029C000EC0160E00E94E112482F4360CE0160E01C
:1029D0000E94DC11CE0167E040E70E94DC1188858F
:1029E0009985892B9A85892B9B85892B9C85892B99
:1029F0009D85892B9E85892B9F85892B41F0AE0172
:102A0000485F5F4FCE016AE025E00E947912CE0157
:102A10000E942511CE010E940D11888161E00E9463
:102A2000A10F82E890E00E94FB0EDF91CF91089504
:102A3000CF92DF92FF920F931F93CF93DF936C019E
:102A4000EB01042FF22ECB010E945307089710F0E0
:102A500020E001C029E000D000D000D0EDB7FEB7E3
:102A6000319681EB91E0ADB7BEB712969C938E93F1
:102A70001197D383C283822F992787FD90959583E1
:102A800084830E94FF07EDB7FEB736960FB6F89421
:102A9000FEBF0FBEEDBFC9EAD1E01BC0102F1F5F04
:102AA000C601602F0E94E11200D000D0EDB7FEB742
:102AB0003196ADB7BEB71296DC93CE931197828351
:102AC00013820E94FF07FA94012F0F900F900F902E
:102AD0000F90FF2019F700D086EA91E0EDB7FEB71E
:102AE000928381830E94FF070F900F90DF91CF9117
:102AF0001F910F91FF90DF90CF900895CF93DF93B8
:102B0000EC01888161E00E94620F898161E00E948E
:102B1000620F0E949518888160E00E94A10FCE018B
:102B200061E070E00E94A51065E070E080E090E058
:102B30000E94A20ECE0164E04FE50E94DC11CE019E
:102B400063E070E00E94A713CE0162E070E00E9493
:102B50006013882311F081E08B83CE0160E070E088
:102B60000E946013CE0162E070E00E943413CE0137
:102B70006CE140E00E94DC11CE0167E040E70E947A
:102B8000DC11CE016CE40E947112CE010E9425116D
:102B9000CE010E940D11DF91CF910895EF92FF9227
:102BA0000F931F93CF93DF937C01162FEA01022F1F
:102BB00060E070E00E94A5101F711EBD0DB407FEFD
:102BC000FDCF1EB59FEF07C09EBD0DB407FEFDCF24
:102BD0008EB5899301500023B9F7C70161E070E019
:102BE0000E94A510812FDF91CF911F910F91FF902F
:102BF000EF9008956F927F928F929F92AF92BF92C3
:102C0000CF92DF92EF92FF920F931F93DF93CF93B8
:102C100000D00F92CDB7DEB78C010E9487140E94BE
:102C20007C0E4B015C01C8010E9404133E01089414
:102C3000611C711C6C01EE24FF24C80168E0A30133
:102C400021E00E94CE15807321F50E947C0E681948
:102C500079098A099B096C157D058E059F05C8F4C5
:102C6000ECCFC8010E94D710F80187838F2D0F90F9
:102C70000F900F90CF91DF911F910F91FF90EF90E8
:102C8000DF90CF90BF90AF909F908F907F906F908C
:102C9000089598012B5F3F4FC801BE016E5F7F4FC3
:102CA000AE014D5F5F4F0E940812FA80F8018581E6
:102CB0008823E1F2D6CF4F925F926F927F928F92EC
:102CC0009F92AF92BF92CF92DF92EF92FF920F93BB
:102CD0001F93DF93CF9300D000D00F92CDB7DEB714
:102CE0006C018B01E42EF22ECB010E945307089752
:102CF00010F020E001C029E000D000D000D0EDB7F6
:102D0000FEB731968EE991E0ADB7BEB712969C93AF
:102D10008E93119713830283822F992787FD9095B5
:102D2000958384830E94FF07EDB7FEB736960FB6F2
:102D3000F894FEBF0FBEEDBF2E010894411C511C3C
:102D40008AE9682E81E0782E06E0802E912C8C0E88
:102D50009D1E15E9A12E11E0B12E2FC0C6016E2DCA
:102D6000A20125E00E94CE1500D0ADB7BEB71296E5
:102D70007C926E9211970E94FF0784010F900F9032
:102D800015C000D000D0EDB7FEB73196ADB7BEB7D5
:102D90001296BC92AE921197D8018C9182831382C5
:102DA0000E94FF070F900F900F900F90015010405E
:102DB0000C171D0731F7E394FA94FF2079F600D041
:102DC00082E991E0EDB7FEB7928381830E94FF070D
:102DD0000F900F900F900F900F900F900F90CF913A
:102DE000DF911F910F91FF90EF90DF90CF90BF90F8
:102DF000AF909F908F907F906F905F904F900895CD
:102E00000F931F938C010E94F510682FC8010E9438
:102E10005B10C80165E871E04AE022E00E945B16A1
:102E2000C80168E771E04CE024E00E941815C80171
:102E300060E771E040E121E00E945B16C80165E6B1
:102E400071E041E126E00E941815C8016FE571E0CC
:102E500041E021E00E941815C80165E571E042E0FB
:102E600021E00E941815C8016FE471E045E021E0FF
:102E70000E941815C80166E471E046E021E00E9456
:102E80001815C8016FE371E040E021E00E941815B9
:102E9000C80161E371E04CE122E00E941815C8010D
:102EA0000E944F13FC01EE0FFF1FEC52FF4F2591C4
:102EB000349100D000D08FE191E0EDB7FEB792835E
:102EC0008183348323830E94FF07F8018381E82FE5
:102ED000F0E0EE0FFF1FE652FF4F2591349180E1A5
:102EE00091E0EDB7FEB792838183348323830E9400
:102EF000FF070F900F900F900F90C8010E942213B0
:102F0000FC01EE0FFF1FE252FF4F2591349100D0DC
:102F100000D08DEF90E0EDB7FEB7928381833483CC
:102F200023830E94FF070F900F900F900F90C8010E
:102F30000E949113FC01EE0FFF1FEC51FF4F2591F2
:102F4000349100D000D08CEE90E0EDB7FEB79283C4
:102F50008183348323830E94FF070F900F900F908B
:102F60000F901F910F9108956093D4031092D60390
:102F700008951F920F920FB60F9211242F933F9333
:102F80004F935F936F937F938F939F93AF93BF9371
:102F9000EF93FF938091D4030E94F50F482F809107
:102FA000D7039091D80301969093D8038093D703C9
:102FB0008091A104843618F085E08093D503809138
:102FC000D5038330D1F0843020F4823009F059C029
:102FD00006C0843071F1853009F053C04CC04423E1
:102FE00009F04FC08091D7039091D80384369105A2
:102FF00008F443C01092A1041EC0413009F041C042
:103000008091A104E82FF0E02091D7033091D803FC
:10301000EE0FFF1FEC52FC4F368325838F5F8093AA
:10302000A1041092D8031092D70384E08093D503B3
:1030300028C04423B9F48091A104E82FF0E0209146
:10304000D7033091D803EE0FFF1FEC52FC4F3683AD
:1030500025838F5F8093A1041092D8031092D70329
:1030600083E0E4CF8091D7039091D8038536910512
:1030700040F085E0DBCF442321F41092D803109276
:10308000D7038091D603882329F0442311F42D9A85
:1030900001C02D98FF91EF91BF91AF919F918F91BA
:1030A0007F916F915F914F913F912F910F900FBE44
:1030B0000F901F901895F89492E09093B000909321
:1030C000B10084E68093B300E2EBF0E01082E0818F
:1030D00090937000789482E08093D5031092A104BD
:1030E0008091D40360E00E94620F0895882319F450
:1030F0008CB5806202C08CB58F7D8CBD08959CB567
:10310000937F982B9CBD08952CB5382F33702C7F5E
:10311000322B3CBD2DB590E095958795959587957B
:1031200081702E7F822B8DBD08958AE061E00E9420
:10313000A10F8AE061E00E94620F8CB580618CBDB6
:103140008CB580648CBD8DE061E00E94620F8BE0E5
:1031500061E00E94620F08955058BB27AA270ED045
:103160001CC10DD130F012D120F031F49F3F11F489
:103170001EF402C10EF4E095E7FBF8C0E92F1ED162
:1031800080F3BA17620773078407950718F071F484
:103190009EF536C10EF4E0950B2EBA2FA02D0B0133
:1031A000B90190010C01CA01A0011124FF27591B8C
:1031B00099F0593F50F4503E68F11A16F040A22F92
:1031C000232F342F4427585FF3CF46953795279503
:1031D000A795F0405395C9F77EF41F16BA0B620B02
:1031E000730B840BBAF09150A1F0FF0FBB1F661F49
:1031F000771F881FC2F70EC0BA0F621F731F841F8C
:1032000048F4879577956795B795F7959E3F08F0B1
:10321000B3CF9395880F08F09927EE0F9795879570
:1032200008950CD0BAC0B2D040F0A9D030F021F44B
:103230005F3F19F09BC05111E4C09EC0BFD098F30E
:103240009923C9F35523B1F3951B550BBB27AA2727
:1032500062177307840738F09F5F5F4F220F331F99
:10326000441FAA1FA9F333D00E2E3AF0E0E830D065
:1032700091505040E695001CCAF729D0FE2F27D068
:10328000660F771F881FBB1F261737074807AB0736
:10329000B0E809F0BB0B802DBF01FF2793585F4FAB
:1032A0002AF09E3F510568F061C0ABC05F3FECF370
:1032B000983EDCF3869577956795B795F7959F5F70
:1032C000C9F7880F911D9695879597F90895E1E0C4
:1032D000660F771F881FBB1F621773078407BA0723
:1032E00020F0621B730B840BBA0BEE1F88F7E0957E
:1032F0000895E89409C097FB3EF4909580957095E9
:1033000061957F4F8F4F9F4F9923A9F0F92F96E931
:10331000BB279395F695879577956795B795F111A6
:10332000F8CFFAF4BB0F11F460FF1BC06F5F7F4F43
:103330008F4F9F4F16C0882311F096E911C0772355
:1033400021F09EE8872F762F05C0662371F096E85E
:10335000862F70E060E02AF09A95660F771F881F2D
:10336000DAF7880F9695879597F9089597F99F67EB
:1033700080E870E060E008959FEF80EC08950024FD
:103380000A941616170618060906089500240A94CA
:1033900012161306140605060895092E0394000C50
:1033A00011F4882352F0BB0F40F4BF2B11F460FFDF
:1033B00004C06F5F7F4F8F4F9F4F089557FD905808
:1033C000440F551F59F05F3F71F04795880F97FBE9
:1033D000991F61F09F3F79F08795089512161306A3
:1033E0001406551FF2CF4695F1DF08C016161706D2
:1033F0001806991FF1CF8695710561050894089507
:10340000E894BB2766277727CB0197F908950BD05F
:10341000C4CFB5DF28F0BADF18F0952309F0A6CFA6
:10342000ABCF1124EECFCADFA0F3959FD1F3950F58
:1034300050E0551F629FF001729FBB27F00DB11D38
:10344000639FAA27F00DB11DAA1F649F6627B00DC8
:10345000A11D661F829F2227B00DA11D621F739FB1
:10346000B00DA11D621F839FA00D611D221F749FBF
:103470003327A00D611D231F849F600D211D822F06
:10348000762F6A2F11249F5750408AF0E1F088234D
:103490004AF0EE0FFF1FBB1F661F771F881F91505A
:1034A0005040A9F79E3F510570F060CFAACF5F3F13
:1034B000ECF3983EDCF3869577956795B795F7958D
:1034C000E7959F5FC1F7FE2B880F911D9695879515
:1034D00097F90895AA1BBB1B51E107C0AA1FBB1F88
:1034E000A617B70710F0A61BB70B881F991F5A9590
:1034F000A9F780959095BC01CD010895A1E21A2EFF
:10350000AA1BBB1BFD010DC0AA1FBB1FEE1FFF1F87
:10351000A217B307E407F50720F0A21BB30BE40BD7
:10352000F50B661F771F881F991F1A9469F760951E
:103530007095809590959B01AC01BD01CF010895D8
:103540002F923F924F925F926F927F928F929F92B3
:10355000AF92BF92CF92DF92EF92FF920F931F93A1
:10356000CF93DF93CDB7DEB7CA1BDB0B0FB6F89452
:10357000DEBF0FBECDBF09942A88398848885F8492
:103580006E847D848C849B84AA84B984C884DF8003
:10359000EE80FD800C811B81AA81B981CE0FD11DE7
:1035A0000FB6F894DEBF0FBECDBFED010895EE0F4C
:0E35B000FF1F0590F491E02D0994F894FFCFD1
:1035BE004E6F772073656E64696E672066726F6DED
:1035CE00204D6F64756C6549442025642C2025734D
:1035DE003A20252E32662C200A0D0053656E74207B
:1035EE002573206F6B2E2E2E0A0D004661696C65B9
:1035FE00642073656E64696E672025732E0A0D0054
:10360E004661696C656420726563656976696E678B
:10361E0020636F6E6669726D6174696F6E2C2072B5
:10362E006573706F6E73652074696D6564206F7558
:10363E0074206475726174696F6E3A2025640A0D88
:10364E0000476F74207265636569766520636F6EDF
:10365E006669726D6174696F6E2066726F6D204D52
:10366E006F64756C65494420256420282573293ABA
:10367E0020252E32662E205374617274207265716D
:10368E00756573742074696D653A20256C752C20F0
:10369E00726F756E642D747269702064656C6179D9
:1036AE0020256C752E20200A0D000A0D524632344C
:1036BE002F6578616D706C65732F70696E677061C0
:1036CE0069722F0A0D00524F4C453A2025730A0D90
:1036DE0000696E76616C69640050696E67206F7563
:1036EE007400506F6E67206261636B002000AC0443
:1036FE000000030021022902320200004040005364
:10370E00656E736F724E6F64655F3032000000013C
:10371E0000000000000000000054656D70657261CD
:10372E0074757265000000000001000000000000CA
:10373E00000000495272656D6F7465000000000054
:10374E0000000001E8030000000000000042617468
:10375E007465727900000000000000000001000096
:10376E0000000100000000570DFC0DED0C1E0DFEBB
:04377E000C470D00E7
:00000001FF
